{
  "address": "0x347C3b499B042C6EEfDc5f024Cf1ADB71a3cD112",
  "abi": [
    {
      "inputs": [
        {
          "internalType": "address",
          "name": "aggregatorAddress",
          "type": "address"
        },
        {
          "internalType": "string",
          "name": "lowSvg",
          "type": "string"
        },
        {
          "internalType": "string",
          "name": "highSvg",
          "type": "string"
        }
      ],
      "stateMutability": "nonpayable",
      "type": "constructor"
    },
    {
      "inputs": [],
      "name": "ERC721Metadata__URI_QueryFor_NonExistentToken",
      "type": "error"
    },
    {
      "anonymous": false,
      "inputs": [
        {
          "indexed": true,
          "internalType": "address",
          "name": "owner",
          "type": "address"
        },
        {
          "indexed": true,
          "internalType": "address",
          "name": "approved",
          "type": "address"
        },
        {
          "indexed": true,
          "internalType": "uint256",
          "name": "tokenId",
          "type": "uint256"
        }
      ],
      "name": "Approval",
      "type": "event"
    },
    {
      "anonymous": false,
      "inputs": [
        {
          "indexed": true,
          "internalType": "address",
          "name": "owner",
          "type": "address"
        },
        {
          "indexed": true,
          "internalType": "address",
          "name": "operator",
          "type": "address"
        },
        {
          "indexed": false,
          "internalType": "bool",
          "name": "approved",
          "type": "bool"
        }
      ],
      "name": "ApprovalForAll",
      "type": "event"
    },
    {
      "anonymous": false,
      "inputs": [
        {
          "indexed": true,
          "internalType": "uint256",
          "name": "tokenId",
          "type": "uint256"
        },
        {
          "indexed": false,
          "internalType": "int256",
          "name": "highValue",
          "type": "int256"
        }
      ],
      "name": "CreatedNFT",
      "type": "event"
    },
    {
      "anonymous": false,
      "inputs": [
        {
          "indexed": true,
          "internalType": "address",
          "name": "from",
          "type": "address"
        },
        {
          "indexed": true,
          "internalType": "address",
          "name": "to",
          "type": "address"
        },
        {
          "indexed": true,
          "internalType": "uint256",
          "name": "tokenId",
          "type": "uint256"
        }
      ],
      "name": "Transfer",
      "type": "event"
    },
    {
      "inputs": [
        {
          "internalType": "address",
          "name": "to",
          "type": "address"
        },
        {
          "internalType": "uint256",
          "name": "tokenId",
          "type": "uint256"
        }
      ],
      "name": "approve",
      "outputs": [],
      "stateMutability": "nonpayable",
      "type": "function"
    },
    {
      "inputs": [
        {
          "internalType": "address",
          "name": "owner",
          "type": "address"
        }
      ],
      "name": "balanceOf",
      "outputs": [
        {
          "internalType": "uint256",
          "name": "",
          "type": "uint256"
        }
      ],
      "stateMutability": "view",
      "type": "function"
    },
    {
      "inputs": [
        {
          "internalType": "uint256",
          "name": "tokenId",
          "type": "uint256"
        }
      ],
      "name": "getApproved",
      "outputs": [
        {
          "internalType": "address",
          "name": "",
          "type": "address"
        }
      ],
      "stateMutability": "view",
      "type": "function"
    },
    {
      "inputs": [],
      "name": "getHighSVG",
      "outputs": [
        {
          "internalType": "string",
          "name": "",
          "type": "string"
        }
      ],
      "stateMutability": "view",
      "type": "function"
    },
    {
      "inputs": [],
      "name": "getLowSVG",
      "outputs": [
        {
          "internalType": "string",
          "name": "",
          "type": "string"
        }
      ],
      "stateMutability": "view",
      "type": "function"
    },
    {
      "inputs": [],
      "name": "getPriceFeed",
      "outputs": [
        {
          "internalType": "contract AggregatorV3Interface",
          "name": "",
          "type": "address"
        }
      ],
      "stateMutability": "view",
      "type": "function"
    },
    {
      "inputs": [],
      "name": "getTokenCounter",
      "outputs": [
        {
          "internalType": "uint256",
          "name": "",
          "type": "uint256"
        }
      ],
      "stateMutability": "view",
      "type": "function"
    },
    {
      "inputs": [
        {
          "internalType": "address",
          "name": "owner",
          "type": "address"
        },
        {
          "internalType": "address",
          "name": "operator",
          "type": "address"
        }
      ],
      "name": "isApprovedForAll",
      "outputs": [
        {
          "internalType": "bool",
          "name": "",
          "type": "bool"
        }
      ],
      "stateMutability": "view",
      "type": "function"
    },
    {
      "inputs": [
        {
          "internalType": "int256",
          "name": "highValue",
          "type": "int256"
        }
      ],
      "name": "mintNft",
      "outputs": [],
      "stateMutability": "nonpayable",
      "type": "function"
    },
    {
      "inputs": [],
      "name": "name",
      "outputs": [
        {
          "internalType": "string",
          "name": "",
          "type": "string"
        }
      ],
      "stateMutability": "view",
      "type": "function"
    },
    {
      "inputs": [
        {
          "internalType": "uint256",
          "name": "tokenId",
          "type": "uint256"
        }
      ],
      "name": "ownerOf",
      "outputs": [
        {
          "internalType": "address",
          "name": "",
          "type": "address"
        }
      ],
      "stateMutability": "view",
      "type": "function"
    },
    {
      "inputs": [
        {
          "internalType": "uint256",
          "name": "",
          "type": "uint256"
        }
      ],
      "name": "s_tokenIdToHighValue",
      "outputs": [
        {
          "internalType": "int256",
          "name": "",
          "type": "int256"
        }
      ],
      "stateMutability": "view",
      "type": "function"
    },
    {
      "inputs": [
        {
          "internalType": "address",
          "name": "from",
          "type": "address"
        },
        {
          "internalType": "address",
          "name": "to",
          "type": "address"
        },
        {
          "internalType": "uint256",
          "name": "tokenId",
          "type": "uint256"
        }
      ],
      "name": "safeTransferFrom",
      "outputs": [],
      "stateMutability": "nonpayable",
      "type": "function"
    },
    {
      "inputs": [
        {
          "internalType": "address",
          "name": "from",
          "type": "address"
        },
        {
          "internalType": "address",
          "name": "to",
          "type": "address"
        },
        {
          "internalType": "uint256",
          "name": "tokenId",
          "type": "uint256"
        },
        {
          "internalType": "bytes",
          "name": "data",
          "type": "bytes"
        }
      ],
      "name": "safeTransferFrom",
      "outputs": [],
      "stateMutability": "nonpayable",
      "type": "function"
    },
    {
      "inputs": [
        {
          "internalType": "address",
          "name": "operator",
          "type": "address"
        },
        {
          "internalType": "bool",
          "name": "approved",
          "type": "bool"
        }
      ],
      "name": "setApprovalForAll",
      "outputs": [],
      "stateMutability": "nonpayable",
      "type": "function"
    },
    {
      "inputs": [
        {
          "internalType": "bytes4",
          "name": "interfaceId",
          "type": "bytes4"
        }
      ],
      "name": "supportsInterface",
      "outputs": [
        {
          "internalType": "bool",
          "name": "",
          "type": "bool"
        }
      ],
      "stateMutability": "view",
      "type": "function"
    },
    {
      "inputs": [
        {
          "internalType": "string",
          "name": "svg",
          "type": "string"
        }
      ],
      "name": "svgImageToUri",
      "outputs": [
        {
          "internalType": "string",
          "name": "",
          "type": "string"
        }
      ],
      "stateMutability": "pure",
      "type": "function"
    },
    {
      "inputs": [],
      "name": "symbol",
      "outputs": [
        {
          "internalType": "string",
          "name": "",
          "type": "string"
        }
      ],
      "stateMutability": "view",
      "type": "function"
    },
    {
      "inputs": [
        {
          "internalType": "uint256",
          "name": "tokenId",
          "type": "uint256"
        }
      ],
      "name": "tokenURI",
      "outputs": [
        {
          "internalType": "string",
          "name": "",
          "type": "string"
        }
      ],
      "stateMutability": "view",
      "type": "function"
    },
    {
      "inputs": [
        {
          "internalType": "address",
          "name": "from",
          "type": "address"
        },
        {
          "internalType": "address",
          "name": "to",
          "type": "address"
        },
        {
          "internalType": "uint256",
          "name": "tokenId",
          "type": "uint256"
        }
      ],
      "name": "transferFrom",
      "outputs": [],
      "stateMutability": "nonpayable",
      "type": "function"
    }
  ],
  "transactionHash": "0xd0d82b536b673aa475368b33378d1a78d283f4a479306444e17bbcebde3df763",
  "args": [
    "0xD4a33860578De61DBAbDc8BFdb98FD742fA7028e",
    "<?xml version=\"1.0\" standalone=\"no\"?>\n<svg width=\"1024px\" height=\"1024px\" viewBox=\"0 0 1024 1024\" xmlns=\"http://www.w3.org/2000/svg\">\n  <path fill=\"#333\" d=\"M512 64C264.6 64 64 264.6 64 512s200.6 448 448 448 448-200.6 448-448S759.4 64 512 64zm0 820c-205.4 0-372-166.6-372-372s166.6-372 372-372 372 166.6 372 372-166.6 372-372 372z\"/>\n  <path fill=\"#E6E6E6\" d=\"M512 140c-205.4 0-372 166.6-372 372s166.6 372 372 372 372-166.6 372-372-166.6-372-372-372zM288 421a48.01 48.01 0 0 1 96 0 48.01 48.01 0 0 1-96 0zm376 272h-48.1c-4.2 0-7.8-3.2-8.1-7.4C604 636.1 562.5 597 512 597s-92.1 39.1-95.8 88.6c-.3 4.2-3.9 7.4-8.1 7.4H360a8 8 0 0 1-8-8.4c4.4-84.3 74.5-151.6 160-151.6s155.6 67.3 160 151.6a8 8 0 0 1-8 8.4zm24-224a48.01 48.01 0 0 1 0-96 48.01 48.01 0 0 1 0 96z\"/>\n  <path fill=\"#333\" d=\"M288 421a48 48 0 1 0 96 0 48 48 0 1 0-96 0zm224 112c-85.5 0-155.6 67.3-160 151.6a8 8 0 0 0 8 8.4h48.1c4.2 0 7.8-3.2 8.1-7.4 3.7-49.5 45.3-88.6 95.8-88.6s92 39.1 95.8 88.6c.3 4.2 3.9 7.4 8.1 7.4H664a8 8 0 0 0 8-8.4C667.6 600.3 597.5 533 512 533zm128-112a48 48 0 1 0 96 0 48 48 0 1 0-96 0z\"/>\n</svg>\n",
    "<svg viewBox=\"0 0 200 200\" width=\"400\"  height=\"400\" xmlns=\"http://www.w3.org/2000/svg\">\n  <circle cx=\"100\" cy=\"100\" fill=\"yellow\" r=\"78\" stroke=\"black\" stroke-width=\"3\"/>\n  <g class=\"eyes\">\n    <circle cx=\"61\" cy=\"82\" r=\"12\"/>\n    <circle cx=\"127\" cy=\"82\" r=\"12\"/>\n  </g>\n  <path d=\"m136.81 116.53c.69 26.17-64.11 42-81.52-.73\" style=\"fill:none; stroke: black; stroke-width: 3;\"/>\n</svg>"
  ],
  "numDeployments": 1,
  "solcInputHash": "38bc5694a553565f02aa98393ae5cb78",
  "bytecode": "0x60a06040523480156200001157600080fd5b5060405162003b6038038062003b60833981810160405281019062000037919062000655565b6040518060400160405280600981526020017f44616e676f6c64656e00000000000000000000000000000000000000000000008152506040518060400160405280600381526020017f444e4700000000000000000000000000000000000000000000000000000000008152508160009080519060200190620000bb929190620003a3565b508060019080519060200190620000d4929190620003a3565b5050506000600881905550620000f0826200017160201b60201c565b6006908051906020019062000107929190620003a3565b5062000119816200017160201b60201c565b6007908051906020019062000130929190620003a3565b508273ffffffffffffffffffffffffffffffffffffffff1660808173ffffffffffffffffffffffffffffffffffffffff1660601b8152505050505062000940565b606060006040518060400160405280601a81526020017f646174613a696d6167652f7376672b786d6c3b6261736536342c00000000000081525090506000620001e684604051602001620001c691906200073c565b6040516020818303038152906040526200021560201b62000f361760201c565b90508181604051602001620001fd92919062000755565b60405160208183030381529060405292505050919050565b60606000825114156200023a576040518060200160405280600081525090506200039e565b600060405180606001604052806040815260200162003b2060409139905060006003600285516200026c9190620007b6565b62000278919062000842565b60046200028691906200087a565b90506000602082620002999190620007b6565b67ffffffffffffffff811115620002b557620002b4620004e7565b5b6040519080825280601f01601f191660200182016040528015620002e85781602001600182028036833780820191505090505b509050818152600183018586518101602084015b8183101562000359576003830192508251603f8160121c168501518253600182019150603f81600c1c168501518253600182019150603f8160061c168501518253600182019150603f8116850151825360018201915050620002fc565b600389510660018114620003765760028114620003875762000392565b613d3d60f01b600283035262000392565b603d60f81b60018303525b50505050508093505050505b919050565b828054620003b1906200090a565b90600052602060002090601f016020900481019282620003d5576000855562000421565b82601f10620003f057805160ff191683800117855562000421565b8280016001018555821562000421579182015b828111156200042057825182559160200191906001019062000403565b5b50905062000430919062000434565b5090565b5b808211156200044f57600081600090555060010162000435565b5090565b6000604051905090565b600080fd5b600080fd5b600073ffffffffffffffffffffffffffffffffffffffff82169050919050565b6000620004948262000467565b9050919050565b620004a68162000487565b8114620004b257600080fd5b50565b600081519050620004c6816200049b565b92915050565b600080fd5b600080fd5b6000601f19601f8301169050919050565b7f4e487b7100000000000000000000000000000000000000000000000000000000600052604160045260246000fd5b6200052182620004d6565b810181811067ffffffffffffffff82111715620005435762000542620004e7565b5b80604052505050565b60006200055862000453565b905062000566828262000516565b919050565b600067ffffffffffffffff821115620005895762000588620004e7565b5b6200059482620004d6565b9050602081019050919050565b60005b83811015620005c1578082015181840152602081019050620005a4565b83811115620005d1576000848401525b50505050565b6000620005ee620005e8846200056b565b6200054c565b9050828152602081018484840111156200060d576200060c620004d1565b5b6200061a848285620005a1565b509392505050565b600082601f8301126200063a5762000639620004cc565b5b81516200064c848260208601620005d7565b91505092915050565b6000806000606084860312156200067157620006706200045d565b5b60006200068186828701620004b5565b935050602084015167ffffffffffffffff811115620006a557620006a462000462565b5b620006b38682870162000622565b925050604084015167ffffffffffffffff811115620006d757620006d662000462565b5b620006e58682870162000622565b9150509250925092565b600081519050919050565b600081905092915050565b60006200071282620006ef565b6200071e8185620006fa565b935062000730818560208601620005a1565b80840191505092915050565b60006200074a828462000705565b915081905092915050565b600062000763828562000705565b915062000771828462000705565b91508190509392505050565b6000819050919050565b7f4e487b7100000000000000000000000000000000000000000000000000000000600052601160045260246000fd5b6000620007c3826200077d565b9150620007d0836200077d565b9250827fffffffffffffffffffffffffffffffffffffffffffffffffffffffffffffffff0382111562000808576200080762000787565b5b828201905092915050565b7f4e487b7100000000000000000000000000000000000000000000000000000000600052601260045260246000fd5b60006200084f826200077d565b91506200085c836200077d565b9250826200086f576200086e62000813565b5b828204905092915050565b600062000887826200077d565b915062000894836200077d565b9250817fffffffffffffffffffffffffffffffffffffffffffffffffffffffffffffffff0483118215151615620008d057620008cf62000787565b5b828202905092915050565b7f4e487b7100000000000000000000000000000000000000000000000000000000600052602260045260246000fd5b600060028204905060018216806200092357607f821691505b602082108114156200093a5762000939620008db565b5b50919050565b60805160601c6131ba6200096660003960008181610a480152610bb801526131ba6000f3fe608060405234801561001057600080fd5b506004361061012c5760003560e01c806376f6056b116100ad578063c87b56dd11610071578063c87b56dd1461032f578063d74e08ed1461035f578063e425aded1461038f578063e985e9c5146103bf578063ed28a122146103ef5761012c565b806376f6056b1461029d57806395d89b41146102bb5780639e87a5cd146102d9578063a22cb465146102f7578063b88d4fde146103135761012c565b806323b872dd116100f457806323b872dd146101e757806342842e0e146102035780636352211e1461021f5780636e02007d1461024f57806370a082311461026d5761012c565b806301ffc9a71461013157806306fdde0314610161578063081812fc1461017f578063095ea7b3146101af5780631e930812146101cb575b600080fd5b61014b60048036038101906101469190611e21565b61040d565b6040516101589190611e69565b60405180910390f35b6101696104ef565b6040516101769190611f1d565b60405180910390f35b61019960048036038101906101949190611f75565b610581565b6040516101a69190611fe3565b60405180910390f35b6101c960048036038101906101c4919061202a565b6105c7565b005b6101e560048036038101906101e091906120a0565b6106df565b005b61020160048036038101906101fc91906120cd565b610757565b005b61021d600480360381019061021891906120cd565b6107b7565b005b61023960048036038101906102349190611f75565b6107d7565b6040516102469190611fe3565b60405180910390f35b61025761085e565b604051610264919061212f565b60405180910390f35b6102876004803603810190610282919061214a565b610868565b604051610294919061212f565b60405180910390f35b6102a5610920565b6040516102b29190611f1d565b60405180910390f35b6102c36109b2565b6040516102d09190611f1d565b60405180910390f35b6102e1610a44565b6040516102ee91906121d6565b60405180910390f35b610311600480360381019061030c919061221d565b610a6c565b005b61032d60048036038101906103289190612392565b610a82565b005b61034960048036038101906103449190611f75565b610ae4565b6040516103569190611f1d565b60405180910390f35b610379600480360381019061037491906124b6565b610d65565b6040516103869190611f1d565b60405180910390f35b6103a960048036038101906103a49190611f75565b610df8565b6040516103b6919061250e565b60405180910390f35b6103d960048036038101906103d49190612529565b610e10565b6040516103e69190611e69565b60405180910390f35b6103f7610ea4565b6040516104049190611f1d565b60405180910390f35b60007f80ac58cd000000000000000000000000000000000000000000000000000000007bffffffffffffffffffffffffffffffffffffffffffffffffffffffff1916827bffffffffffffffffffffffffffffffffffffffffffffffffffffffff191614806104d857507f5b5e139f000000000000000000000000000000000000000000000000000000007bffffffffffffffffffffffffffffffffffffffffffffffffffffffff1916827bffffffffffffffffffffffffffffffffffffffffffffffffffffffff1916145b806104e857506104e7826110af565b5b9050919050565b6060600080546104fe90612598565b80601f016020809104026020016040519081016040528092919081815260200182805461052a90612598565b80156105775780601f1061054c57610100808354040283529160200191610577565b820191906000526020600020905b81548152906001019060200180831161055a57829003601f168201915b5050505050905090565b600061058c82611119565b6004600083815260200190815260200160002060009054906101000a900473ffffffffffffffffffffffffffffffffffffffff169050919050565b60006105d2826107d7565b90508073ffffffffffffffffffffffffffffffffffffffff168373ffffffffffffffffffffffffffffffffffffffff161415610643576040517f08c379a000000000000000000000000000000000000000000000000000000000815260040161063a9061263c565b60405180910390fd5b8073ffffffffffffffffffffffffffffffffffffffff16610662611164565b73ffffffffffffffffffffffffffffffffffffffff16148061069157506106908161068b611164565b610e10565b5b6106d0576040517f08c379a00000000000000000000000000000000000000000000000000000000081526004016106c7906126ce565b60405180910390fd5b6106da838361116c565b505050565b60016008546106ee919061271d565b600881905550806009600060085481526020019081526020016000208190555061071a33600854611225565b6008547f882d3b5a729a8bb95cf6c0083c99b42ecd9637123d4425bd7b768877fd8af8b08260405161074c919061250e565b60405180910390a250565b610768610762611164565b82611243565b6107a7576040517f08c379a000000000000000000000000000000000000000000000000000000000815260040161079e906127e5565b60405180910390fd5b6107b28383836112d8565b505050565b6107d283838360405180602001604052806000815250610a82565b505050565b6000806107e3836115d2565b9050600073ffffffffffffffffffffffffffffffffffffffff168173ffffffffffffffffffffffffffffffffffffffff161415610855576040517f08c379a000000000000000000000000000000000000000000000000000000000815260040161084c90612851565b60405180910390fd5b80915050919050565b6000600854905090565b60008073ffffffffffffffffffffffffffffffffffffffff168273ffffffffffffffffffffffffffffffffffffffff1614156108d9576040517f08c379a00000000000000000000000000000000000000000000000000000000081526004016108d0906128e3565b60405180910390fd5b600360008373ffffffffffffffffffffffffffffffffffffffff1673ffffffffffffffffffffffffffffffffffffffff168152602001908152602001600020549050919050565b60606007805461092f90612598565b80601f016020809104026020016040519081016040528092919081815260200182805461095b90612598565b80156109a85780601f1061097d576101008083540402835291602001916109a8565b820191906000526020600020905b81548152906001019060200180831161098b57829003601f168201915b5050505050905090565b6060600180546109c190612598565b80601f01602080910402602001604051908101604052809291908181526020018280546109ed90612598565b8015610a3a5780601f10610a0f57610100808354040283529160200191610a3a565b820191906000526020600020905b815481529060010190602001808311610a1d57829003601f168201915b5050505050905090565b60007f0000000000000000000000000000000000000000000000000000000000000000905090565b610a7e610a77611164565b838361160f565b5050565b610a93610a8d611164565b83611243565b610ad2576040517f08c379a0000000000000000000000000000000000000000000000000000000008152600401610ac9906127e5565b60405180910390fd5b610ade8484848461177c565b50505050565b6060610aef826117d8565b610b25576040517f6df5edae00000000000000000000000000000000000000000000000000000000815260040160405180910390fd5b600060068054610b3490612598565b80601f0160208091040260200160405190810160405280929190818152602001828054610b6090612598565b8015610bad5780601f10610b8257610100808354040283529160200191610bad565b820191906000526020600020905b815481529060010190602001808311610b9057829003601f168201915b5050505050905060007f000000000000000000000000000000000000000000000000000000000000000073ffffffffffffffffffffffffffffffffffffffff1663feaf968c6040518163ffffffff1660e01b815260040160a06040518083038186803b158015610c1c57600080fd5b505afa158015610c30573d6000803e3d6000fd5b505050506040513d601f19601f82011682018060405250810190610c54919061296f565b5050509150506009600085815260200190815260200160002054811315610d035760078054610c8290612598565b80601f0160208091040260200160405190810160405280929190818152602001828054610cae90612598565b8015610cfb5780601f10610cd057610100808354040283529160200191610cfb565b820191906000526020600020905b815481529060010190602001808311610cde57829003601f168201915b505050505091505b610d0b611819565b610d3c610d166104ef565b84604051602001610d28929190612bee565b604051602081830303815290604052610f36565b604051602001610d4d929190612c3e565b60405160208183030381529060405292505050919050565b606060006040518060400160405280601a81526020017f646174613a696d6167652f7376672b786d6c3b6261736536342c00000000000081525090506000610dcb84604051602001610db79190612c62565b604051602081830303815290604052610f36565b90508181604051602001610de0929190612c3e565b60405160208183030381529060405292505050919050565b60096020528060005260406000206000915090505481565b6000600560008473ffffffffffffffffffffffffffffffffffffffff1673ffffffffffffffffffffffffffffffffffffffff16815260200190815260200160002060008373ffffffffffffffffffffffffffffffffffffffff1673ffffffffffffffffffffffffffffffffffffffff16815260200190815260200160002060009054906101000a900460ff16905092915050565b606060068054610eb390612598565b80601f0160208091040260200160405190810160405280929190818152602001828054610edf90612598565b8015610f2c5780601f10610f0157610100808354040283529160200191610f2c565b820191906000526020600020905b815481529060010190602001808311610f0f57829003601f168201915b5050505050905090565b6060600082511415610f59576040518060200160405280600081525090506110aa565b60006040518060600160405280604081526020016131456040913990506000600360028551610f88919061271d565b610f929190612ca8565b6004610f9e9190612cd9565b90506000602082610faf919061271d565b67ffffffffffffffff811115610fc857610fc7612267565b5b6040519080825280601f01601f191660200182016040528015610ffa5781602001600182028036833780820191505090505b509050818152600183018586518101602084015b81831015611069576003830192508251603f8160121c168501518253600182019150603f81600c1c168501518253600182019150603f8160061c168501518253600182019150603f811685015182536001820191505061100e565b60038951066001811461108357600281146110935761109e565b613d3d60f01b600283035261109e565b603d60f81b60018303525b50505050508093505050505b919050565b60007f01ffc9a7000000000000000000000000000000000000000000000000000000007bffffffffffffffffffffffffffffffffffffffffffffffffffffffff1916827bffffffffffffffffffffffffffffffffffffffffffffffffffffffff1916149050919050565b611122816117d8565b611161576040517f08c379a000000000000000000000000000000000000000000000000000000000815260040161115890612851565b60405180910390fd5b50565b600033905090565b816004600083815260200190815260200160002060006101000a81548173ffffffffffffffffffffffffffffffffffffffff021916908373ffffffffffffffffffffffffffffffffffffffff160217905550808273ffffffffffffffffffffffffffffffffffffffff166111df836107d7565b73ffffffffffffffffffffffffffffffffffffffff167f8c5be1e5ebec7d5bd14f71427d1e84f3dd0314c0f7b2291e5b200ac8c7c3b92560405160405180910390a45050565b61123f828260405180602001604052806000815250611856565b5050565b60008061124f836107d7565b90508073ffffffffffffffffffffffffffffffffffffffff168473ffffffffffffffffffffffffffffffffffffffff16148061129157506112908185610e10565b5b806112cf57508373ffffffffffffffffffffffffffffffffffffffff166112b784610581565b73ffffffffffffffffffffffffffffffffffffffff16145b91505092915050565b8273ffffffffffffffffffffffffffffffffffffffff166112f8826107d7565b73ffffffffffffffffffffffffffffffffffffffff161461134e576040517f08c379a000000000000000000000000000000000000000000000000000000000815260040161134590612da5565b60405180910390fd5b600073ffffffffffffffffffffffffffffffffffffffff168273ffffffffffffffffffffffffffffffffffffffff1614156113be576040517f08c379a00000000000000000000000000000000000000000000000000000000081526004016113b590612e37565b60405180910390fd5b6113cb83838360016118b1565b8273ffffffffffffffffffffffffffffffffffffffff166113eb826107d7565b73ffffffffffffffffffffffffffffffffffffffff1614611441576040517f08c379a000000000000000000000000000000000000000000000000000000000815260040161143890612da5565b60405180910390fd5b6004600082815260200190815260200160002060006101000a81549073ffffffffffffffffffffffffffffffffffffffff02191690556001600360008573ffffffffffffffffffffffffffffffffffffffff1673ffffffffffffffffffffffffffffffffffffffff168152602001908152602001600020600082825403925050819055506001600360008473ffffffffffffffffffffffffffffffffffffffff1673ffffffffffffffffffffffffffffffffffffffff16815260200190815260200160002060008282540192505081905550816002600083815260200190815260200160002060006101000a81548173ffffffffffffffffffffffffffffffffffffffff021916908373ffffffffffffffffffffffffffffffffffffffff160217905550808273ffffffffffffffffffffffffffffffffffffffff168473ffffffffffffffffffffffffffffffffffffffff167fddf252ad1be2c89b69c2b068fc378daa952ba7f163c4a11628f55a4df523b3ef60405160405180910390a46115cd83838360016119d7565b505050565b60006002600083815260200190815260200160002060009054906101000a900473ffffffffffffffffffffffffffffffffffffffff169050919050565b8173ffffffffffffffffffffffffffffffffffffffff168373ffffffffffffffffffffffffffffffffffffffff16141561167e576040517f08c379a000000000000000000000000000000000000000000000000000000000815260040161167590612ea3565b60405180910390fd5b80600560008573ffffffffffffffffffffffffffffffffffffffff1673ffffffffffffffffffffffffffffffffffffffff16815260200190815260200160002060008473ffffffffffffffffffffffffffffffffffffffff1673ffffffffffffffffffffffffffffffffffffffff16815260200190815260200160002060006101000a81548160ff0219169083151502179055508173ffffffffffffffffffffffffffffffffffffffff168373ffffffffffffffffffffffffffffffffffffffff167f17307eab39ab6107e8899845ad3d59bd9653f200f220920489ca2b5937696c318360405161176f9190611e69565b60405180910390a3505050565b6117878484846112d8565b611793848484846119dd565b6117d2576040517f08c379a00000000000000000000000000000000000000000000000000000000081526004016117c990612f35565b60405180910390fd5b50505050565b60008073ffffffffffffffffffffffffffffffffffffffff166117fa836115d2565b73ffffffffffffffffffffffffffffffffffffffff1614159050919050565b60606040518060400160405280601d81526020017f646174613a6170706c69636174696f6e2f6a736f6e3b6261736536342c000000815250905090565b6118608383611b74565b61186d60008484846119dd565b6118ac576040517f08c379a00000000000000000000000000000000000000000000000000000000081526004016118a390612f35565b60405180910390fd5b505050565b60018111156119d157600073ffffffffffffffffffffffffffffffffffffffff168473ffffffffffffffffffffffffffffffffffffffff16146119455780600360008673ffffffffffffffffffffffffffffffffffffffff1673ffffffffffffffffffffffffffffffffffffffff168152602001908152602001600020600082825461193d9190612f55565b925050819055505b600073ffffffffffffffffffffffffffffffffffffffff168373ffffffffffffffffffffffffffffffffffffffff16146119d05780600360008573ffffffffffffffffffffffffffffffffffffffff1673ffffffffffffffffffffffffffffffffffffffff16815260200190815260200160002060008282546119c8919061271d565b925050819055505b5b50505050565b50505050565b60006119fe8473ffffffffffffffffffffffffffffffffffffffff16611d92565b15611b67578373ffffffffffffffffffffffffffffffffffffffff1663150b7a02611a27611164565b8786866040518563ffffffff1660e01b8152600401611a499493929190612fde565b602060405180830381600087803b158015611a6357600080fd5b505af1925050508015611a9457506040513d601f19601f82011682018060405250810190611a91919061303f565b60015b611b17573d8060008114611ac4576040519150601f19603f3d011682016040523d82523d6000602084013e611ac9565b606091505b50600081511415611b0f576040517f08c379a0000000000000000000000000000000000000000000000000000000008152600401611b0690612f35565b60405180910390fd5b805181602001fd5b63150b7a0260e01b7bffffffffffffffffffffffffffffffffffffffffffffffffffffffff1916817bffffffffffffffffffffffffffffffffffffffffffffffffffffffff191614915050611b6c565b600190505b949350505050565b600073ffffffffffffffffffffffffffffffffffffffff168273ffffffffffffffffffffffffffffffffffffffff161415611be4576040517f08c379a0000000000000000000000000000000000000000000000000000000008152600401611bdb906130b8565b60405180910390fd5b611bed816117d8565b15611c2d576040517f08c379a0000000000000000000000000000000000000000000000000000000008152600401611c2490613124565b60405180910390fd5b611c3b6000838360016118b1565b611c44816117d8565b15611c84576040517f08c379a0000000000000000000000000000000000000000000000000000000008152600401611c7b90613124565b60405180910390fd5b6001600360008473ffffffffffffffffffffffffffffffffffffffff1673ffffffffffffffffffffffffffffffffffffffff16815260200190815260200160002060008282540192505081905550816002600083815260200190815260200160002060006101000a81548173ffffffffffffffffffffffffffffffffffffffff021916908373ffffffffffffffffffffffffffffffffffffffff160217905550808273ffffffffffffffffffffffffffffffffffffffff16600073ffffffffffffffffffffffffffffffffffffffff167fddf252ad1be2c89b69c2b068fc378daa952ba7f163c4a11628f55a4df523b3ef60405160405180910390a4611d8e6000838360016119d7565b5050565b6000808273ffffffffffffffffffffffffffffffffffffffff163b119050919050565b6000604051905090565b600080fd5b600080fd5b60007fffffffff0000000000000000000000000000000000000000000000000000000082169050919050565b611dfe81611dc9565b8114611e0957600080fd5b50565b600081359050611e1b81611df5565b92915050565b600060208284031215611e3757611e36611dbf565b5b6000611e4584828501611e0c565b91505092915050565b60008115159050919050565b611e6381611e4e565b82525050565b6000602082019050611e7e6000830184611e5a565b92915050565b600081519050919050565b600082825260208201905092915050565b60005b83811015611ebe578082015181840152602081019050611ea3565b83811115611ecd576000848401525b50505050565b6000601f19601f8301169050919050565b6000611eef82611e84565b611ef98185611e8f565b9350611f09818560208601611ea0565b611f1281611ed3565b840191505092915050565b60006020820190508181036000830152611f378184611ee4565b905092915050565b6000819050919050565b611f5281611f3f565b8114611f5d57600080fd5b50565b600081359050611f6f81611f49565b92915050565b600060208284031215611f8b57611f8a611dbf565b5b6000611f9984828501611f60565b91505092915050565b600073ffffffffffffffffffffffffffffffffffffffff82169050919050565b6000611fcd82611fa2565b9050919050565b611fdd81611fc2565b82525050565b6000602082019050611ff86000830184611fd4565b92915050565b61200781611fc2565b811461201257600080fd5b50565b60008135905061202481611ffe565b92915050565b6000806040838503121561204157612040611dbf565b5b600061204f85828601612015565b925050602061206085828601611f60565b9150509250929050565b6000819050919050565b61207d8161206a565b811461208857600080fd5b50565b60008135905061209a81612074565b92915050565b6000602082840312156120b6576120b5611dbf565b5b60006120c48482850161208b565b91505092915050565b6000806000606084860312156120e6576120e5611dbf565b5b60006120f486828701612015565b935050602061210586828701612015565b925050604061211686828701611f60565b9150509250925092565b61212981611f3f565b82525050565b60006020820190506121446000830184612120565b92915050565b6000602082840312156121605761215f611dbf565b5b600061216e84828501612015565b91505092915050565b6000819050919050565b600061219c61219761219284611fa2565b612177565b611fa2565b9050919050565b60006121ae82612181565b9050919050565b60006121c0826121a3565b9050919050565b6121d0816121b5565b82525050565b60006020820190506121eb60008301846121c7565b92915050565b6121fa81611e4e565b811461220557600080fd5b50565b600081359050612217816121f1565b92915050565b6000806040838503121561223457612233611dbf565b5b600061224285828601612015565b925050602061225385828601612208565b9150509250929050565b600080fd5b600080fd5b7f4e487b7100000000000000000000000000000000000000000000000000000000600052604160045260246000fd5b61229f82611ed3565b810181811067ffffffffffffffff821117156122be576122bd612267565b5b80604052505050565b60006122d1611db5565b90506122dd8282612296565b919050565b600067ffffffffffffffff8211156122fd576122fc612267565b5b61230682611ed3565b9050602081019050919050565b82818337600083830152505050565b6000612335612330846122e2565b6122c7565b90508281526020810184848401111561235157612350612262565b5b61235c848285612313565b509392505050565b600082601f8301126123795761237861225d565b5b8135612389848260208601612322565b91505092915050565b600080600080608085870312156123ac576123ab611dbf565b5b60006123ba87828801612015565b94505060206123cb87828801612015565b93505060406123dc87828801611f60565b925050606085013567ffffffffffffffff8111156123fd576123fc611dc4565b5b61240987828801612364565b91505092959194509250565b600067ffffffffffffffff8211156124305761242f612267565b5b61243982611ed3565b9050602081019050919050565b600061245961245484612415565b6122c7565b90508281526020810184848401111561247557612474612262565b5b612480848285612313565b509392505050565b600082601f83011261249d5761249c61225d565b5b81356124ad848260208601612446565b91505092915050565b6000602082840312156124cc576124cb611dbf565b5b600082013567ffffffffffffffff8111156124ea576124e9611dc4565b5b6124f684828501612488565b91505092915050565b6125088161206a565b82525050565b600060208201905061252360008301846124ff565b92915050565b600080604083850312156125405761253f611dbf565b5b600061254e85828601612015565b925050602061255f85828601612015565b9150509250929050565b7f4e487b7100000000000000000000000000000000000000000000000000000000600052602260045260246000fd5b600060028204905060018216806125b057607f821691505b602082108114156125c4576125c3612569565b5b50919050565b7f4552433732313a20617070726f76616c20746f2063757272656e74206f776e6560008201527f7200000000000000000000000000000000000000000000000000000000000000602082015250565b6000612626602183611e8f565b9150612631826125ca565b604082019050919050565b6000602082019050818103600083015261265581612619565b9050919050565b7f4552433732313a20617070726f76652063616c6c6572206973206e6f7420746f60008201527f6b656e206f776e6572206f7220617070726f76656420666f7220616c6c000000602082015250565b60006126b8603d83611e8f565b91506126c38261265c565b604082019050919050565b600060208201905081810360008301526126e7816126ab565b9050919050565b7f4e487b7100000000000000000000000000000000000000000000000000000000600052601160045260246000fd5b600061272882611f3f565b915061273383611f3f565b9250827fffffffffffffffffffffffffffffffffffffffffffffffffffffffffffffffff03821115612768576127676126ee565b5b828201905092915050565b7f4552433732313a2063616c6c6572206973206e6f7420746f6b656e206f776e6560008201527f72206f7220617070726f76656400000000000000000000000000000000000000602082015250565b60006127cf602d83611e8f565b91506127da82612773565b604082019050919050565b600060208201905081810360008301526127fe816127c2565b9050919050565b7f4552433732313a20696e76616c696420746f6b656e2049440000000000000000600082015250565b600061283b601883611e8f565b915061284682612805565b602082019050919050565b6000602082019050818103600083015261286a8161282e565b9050919050565b7f4552433732313a2061646472657373207a65726f206973206e6f74206120766160008201527f6c6964206f776e65720000000000000000000000000000000000000000000000602082015250565b60006128cd602983611e8f565b91506128d882612871565b604082019050919050565b600060208201905081810360008301526128fc816128c0565b9050919050565b600069ffffffffffffffffffff82169050919050565b61292281612903565b811461292d57600080fd5b50565b60008151905061293f81612919565b92915050565b60008151905061295481612074565b92915050565b60008151905061296981611f49565b92915050565b600080600080600060a0868803121561298b5761298a611dbf565b5b600061299988828901612930565b95505060206129aa88828901612945565b94505060406129bb8882890161295a565b93505060606129cc8882890161295a565b92505060806129dd88828901612930565b9150509295509295909350565b600081905092915050565b7f7b226e616d65223a220000000000000000000000000000000000000000000000600082015250565b6000612a2b6009836129ea565b9150612a36826129f5565b600982019050919050565b6000612a4c82611e84565b612a5681856129ea565b9350612a66818560208601611ea0565b80840191505092915050565b7f222c20226465736372697074696f6e223a22416e204e4654207468617420636860008201527f616e676573206261736564206f6e2074686520436861696e6c696e6b2046656560208201527f64222c2000000000000000000000000000000000000000000000000000000000604082015250565b6000612af46044836129ea565b9150612aff82612a72565b604482019050919050565b7f2261747472696275746573223a205b7b2274726169745f74797065223a20226360008201527f6f6f6c6e657373222c202276616c7565223a203130307d5d2c2022696d61676560208201527f223a220000000000000000000000000000000000000000000000000000000000604082015250565b6000612b8c6043836129ea565b9150612b9782612b0a565b604382019050919050565b7f227d000000000000000000000000000000000000000000000000000000000000600082015250565b6000612bd86002836129ea565b9150612be382612ba2565b600282019050919050565b6000612bf982612a1e565b9150612c058285612a41565b9150612c1082612ae7565b9150612c1b82612b7f565b9150612c278284612a41565b9150612c3282612bcb565b91508190509392505050565b6000612c4a8285612a41565b9150612c568284612a41565b91508190509392505050565b6000612c6e8284612a41565b915081905092915050565b7f4e487b7100000000000000000000000000000000000000000000000000000000600052601260045260246000fd5b6000612cb382611f3f565b9150612cbe83611f3f565b925082612cce57612ccd612c79565b5b828204905092915050565b6000612ce482611f3f565b9150612cef83611f3f565b9250817fffffffffffffffffffffffffffffffffffffffffffffffffffffffffffffffff0483118215151615612d2857612d276126ee565b5b828202905092915050565b7f4552433732313a207472616e736665722066726f6d20696e636f72726563742060008201527f6f776e6572000000000000000000000000000000000000000000000000000000602082015250565b6000612d8f602583611e8f565b9150612d9a82612d33565b604082019050919050565b60006020820190508181036000830152612dbe81612d82565b9050919050565b7f4552433732313a207472616e7366657220746f20746865207a65726f2061646460008201527f7265737300000000000000000000000000000000000000000000000000000000602082015250565b6000612e21602483611e8f565b9150612e2c82612dc5565b604082019050919050565b60006020820190508181036000830152612e5081612e14565b9050919050565b7f4552433732313a20617070726f766520746f2063616c6c657200000000000000600082015250565b6000612e8d601983611e8f565b9150612e9882612e57565b602082019050919050565b60006020820190508181036000830152612ebc81612e80565b9050919050565b7f4552433732313a207472616e7366657220746f206e6f6e20455243373231526560008201527f63656976657220696d706c656d656e7465720000000000000000000000000000602082015250565b6000612f1f603283611e8f565b9150612f2a82612ec3565b604082019050919050565b60006020820190508181036000830152612f4e81612f12565b9050919050565b6000612f6082611f3f565b9150612f6b83611f3f565b925082821015612f7e57612f7d6126ee565b5b828203905092915050565b600081519050919050565b600082825260208201905092915050565b6000612fb082612f89565b612fba8185612f94565b9350612fca818560208601611ea0565b612fd381611ed3565b840191505092915050565b6000608082019050612ff36000830187611fd4565b6130006020830186611fd4565b61300d6040830185612120565b818103606083015261301f8184612fa5565b905095945050505050565b60008151905061303981611df5565b92915050565b60006020828403121561305557613054611dbf565b5b60006130638482850161302a565b91505092915050565b7f4552433732313a206d696e7420746f20746865207a65726f2061646472657373600082015250565b60006130a2602083611e8f565b91506130ad8261306c565b602082019050919050565b600060208201905081810360008301526130d181613095565b9050919050565b7f4552433732313a20746f6b656e20616c7265616479206d696e74656400000000600082015250565b600061310e601c83611e8f565b9150613119826130d8565b602082019050919050565b6000602082019050818103600083015261313d81613101565b905091905056fe4142434445464748494a4b4c4d4e4f505152535455565758595a6162636465666768696a6b6c6d6e6f707172737475767778797a303132333435363738392b2fa2646970667358221220a6cde26f0939da729122aacbd33c35a7914ff340d1c54188cc71c08813b2fbb164736f6c634300080800334142434445464748494a4b4c4d4e4f505152535455565758595a6162636465666768696a6b6c6d6e6f707172737475767778797a303132333435363738392b2f",
  "devdoc": {
    "kind": "dev",
    "methods": {
      "approve(address,uint256)": {
        "details": "See {IERC721-approve}."
      },
      "balanceOf(address)": {
        "details": "See {IERC721-balanceOf}."
      },
      "getApproved(uint256)": {
        "details": "See {IERC721-getApproved}."
      },
      "isApprovedForAll(address,address)": {
        "details": "See {IERC721-isApprovedForAll}."
      },
      "name()": {
        "details": "See {IERC721Metadata-name}."
      },
      "ownerOf(uint256)": {
        "details": "See {IERC721-ownerOf}."
      },
      "safeTransferFrom(address,address,uint256)": {
        "details": "See {IERC721-safeTransferFrom}."
      },
      "safeTransferFrom(address,address,uint256,bytes)": {
        "details": "See {IERC721-safeTransferFrom}."
      },
      "setApprovalForAll(address,bool)": {
        "details": "See {IERC721-setApprovalForAll}."
      },
      "supportsInterface(bytes4)": {
        "details": "See {IERC165-supportsInterface}."
      },
      "symbol()": {
        "details": "See {IERC721Metadata-symbol}."
      },
      "tokenURI(uint256)": {
        "details": "See {IERC721Metadata-tokenURI}."
      },
      "transferFrom(address,address,uint256)": {
        "details": "See {IERC721-transferFrom}."
      }
    },
    "version": 1
  },
  "userdoc": {
    "kind": "user",
    "methods": {},
    "version": 1
  },
  "storageLayout": {
    "storage": [
      {
        "astId": 71,
        "contract": "contracts/DynamicSvgNft.sol:DynamicSvgNft",
        "label": "_name",
        "offset": 0,
        "slot": "0",
        "type": "t_string_storage"
      },
      {
        "astId": 73,
        "contract": "contracts/DynamicSvgNft.sol:DynamicSvgNft",
        "label": "_symbol",
        "offset": 0,
        "slot": "1",
        "type": "t_string_storage"
      },
      {
        "astId": 77,
        "contract": "contracts/DynamicSvgNft.sol:DynamicSvgNft",
        "label": "_owners",
        "offset": 0,
        "slot": "2",
        "type": "t_mapping(t_uint256,t_address)"
      },
      {
        "astId": 81,
        "contract": "contracts/DynamicSvgNft.sol:DynamicSvgNft",
        "label": "_balances",
        "offset": 0,
        "slot": "3",
        "type": "t_mapping(t_address,t_uint256)"
      },
      {
        "astId": 85,
        "contract": "contracts/DynamicSvgNft.sol:DynamicSvgNft",
        "label": "_tokenApprovals",
        "offset": 0,
        "slot": "4",
        "type": "t_mapping(t_uint256,t_address)"
      },
      {
        "astId": 91,
        "contract": "contracts/DynamicSvgNft.sol:DynamicSvgNft",
        "label": "_operatorApprovals",
        "offset": 0,
        "slot": "5",
        "type": "t_mapping(t_address,t_mapping(t_address,t_bool))"
      },
      {
        "astId": 2711,
        "contract": "contracts/DynamicSvgNft.sol:DynamicSvgNft",
        "label": "s_lowSvgImageURI",
        "offset": 0,
        "slot": "6",
        "type": "t_string_storage"
      },
      {
        "astId": 2713,
        "contract": "contracts/DynamicSvgNft.sol:DynamicSvgNft",
        "label": "s_highSvgImageURI",
        "offset": 0,
        "slot": "7",
        "type": "t_string_storage"
      },
      {
        "astId": 2715,
        "contract": "contracts/DynamicSvgNft.sol:DynamicSvgNft",
        "label": "s_counter",
        "offset": 0,
        "slot": "8",
        "type": "t_uint256"
      },
      {
        "astId": 2722,
        "contract": "contracts/DynamicSvgNft.sol:DynamicSvgNft",
        "label": "s_tokenIdToHighValue",
        "offset": 0,
        "slot": "9",
        "type": "t_mapping(t_uint256,t_int256)"
      }
    ],
    "types": {
      "t_address": {
        "encoding": "inplace",
        "label": "address",
        "numberOfBytes": "20"
      },
      "t_bool": {
        "encoding": "inplace",
        "label": "bool",
        "numberOfBytes": "1"
      },
      "t_int256": {
        "encoding": "inplace",
        "label": "int256",
        "numberOfBytes": "32"
      },
      "t_mapping(t_address,t_bool)": {
        "encoding": "mapping",
        "key": "t_address",
        "label": "mapping(address => bool)",
        "numberOfBytes": "32",
        "value": "t_bool"
      },
      "t_mapping(t_address,t_mapping(t_address,t_bool))": {
        "encoding": "mapping",
        "key": "t_address",
        "label": "mapping(address => mapping(address => bool))",
        "numberOfBytes": "32",
        "value": "t_mapping(t_address,t_bool)"
      },
      "t_mapping(t_address,t_uint256)": {
        "encoding": "mapping",
        "key": "t_address",
        "label": "mapping(address => uint256)",
        "numberOfBytes": "32",
        "value": "t_uint256"
      },
      "t_mapping(t_uint256,t_address)": {
        "encoding": "mapping",
        "key": "t_uint256",
        "label": "mapping(uint256 => address)",
        "numberOfBytes": "32",
        "value": "t_address"
      },
      "t_mapping(t_uint256,t_int256)": {
        "encoding": "mapping",
        "key": "t_uint256",
        "label": "mapping(uint256 => int256)",
        "numberOfBytes": "32",
        "value": "t_int256"
      },
      "t_string_storage": {
        "encoding": "bytes",
        "label": "string",
        "numberOfBytes": "32"
      },
      "t_uint256": {
        "encoding": "inplace",
        "label": "uint256",
        "numberOfBytes": "32"
      }
    }
  }
}