{
  "address": "0x916351D22236a543b924E5A432C14b15461C7cD8",
  "abi": [
    {
      "inputs": [
        {
          "internalType": "address",
          "name": "vrfCoordinator",
          "type": "address"
        },
        {
          "internalType": "bytes32",
          "name": "gasLane",
          "type": "bytes32"
        },
        {
          "internalType": "uint64",
          "name": "subscriptionId",
          "type": "uint64"
        },
        {
          "internalType": "uint32",
          "name": "callbackGasLimit",
          "type": "uint32"
        },
        {
          "internalType": "string[3]",
          "name": "NftTokenUris",
          "type": "string[3]"
        },
        {
          "internalType": "uint256",
          "name": "mintFee",
          "type": "uint256"
        }
      ],
      "stateMutability": "nonpayable",
      "type": "constructor"
    },
    {
      "inputs": [
        {
          "internalType": "address",
          "name": "have",
          "type": "address"
        },
        {
          "internalType": "address",
          "name": "want",
          "type": "address"
        }
      ],
      "name": "OnlyCoordinatorCanFulfill",
      "type": "error"
    },
    {
      "inputs": [],
      "name": "RandomIpfsNft_TransferFailed",
      "type": "error"
    },
    {
      "inputs": [],
      "name": "RandonIpftNft_notEnoughEth",
      "type": "error"
    },
    {
      "inputs": [],
      "name": "RandonIpftNft_outOfBounds",
      "type": "error"
    },
    {
      "anonymous": false,
      "inputs": [
        {
          "indexed": true,
          "internalType": "address",
          "name": "owner",
          "type": "address"
        },
        {
          "indexed": true,
          "internalType": "address",
          "name": "approved",
          "type": "address"
        },
        {
          "indexed": true,
          "internalType": "uint256",
          "name": "tokenId",
          "type": "uint256"
        }
      ],
      "name": "Approval",
      "type": "event"
    },
    {
      "anonymous": false,
      "inputs": [
        {
          "indexed": true,
          "internalType": "address",
          "name": "owner",
          "type": "address"
        },
        {
          "indexed": true,
          "internalType": "address",
          "name": "operator",
          "type": "address"
        },
        {
          "indexed": false,
          "internalType": "bool",
          "name": "approved",
          "type": "bool"
        }
      ],
      "name": "ApprovalForAll",
      "type": "event"
    },
    {
      "anonymous": false,
      "inputs": [
        {
          "indexed": true,
          "internalType": "enum RandomIpfsNft.Bread",
          "name": "dogBread",
          "type": "uint8"
        },
        {
          "indexed": false,
          "internalType": "address",
          "name": "minter",
          "type": "address"
        }
      ],
      "name": "NFTMinted",
      "type": "event"
    },
    {
      "anonymous": false,
      "inputs": [
        {
          "indexed": true,
          "internalType": "uint256",
          "name": "requestId",
          "type": "uint256"
        },
        {
          "indexed": false,
          "internalType": "address",
          "name": "requester",
          "type": "address"
        }
      ],
      "name": "NftRequested",
      "type": "event"
    },
    {
      "anonymous": false,
      "inputs": [
        {
          "indexed": true,
          "internalType": "address",
          "name": "previousOwner",
          "type": "address"
        },
        {
          "indexed": true,
          "internalType": "address",
          "name": "newOwner",
          "type": "address"
        }
      ],
      "name": "OwnershipTransferred",
      "type": "event"
    },
    {
      "anonymous": false,
      "inputs": [
        {
          "indexed": true,
          "internalType": "address",
          "name": "from",
          "type": "address"
        },
        {
          "indexed": true,
          "internalType": "address",
          "name": "to",
          "type": "address"
        },
        {
          "indexed": true,
          "internalType": "uint256",
          "name": "tokenId",
          "type": "uint256"
        }
      ],
      "name": "Transfer",
      "type": "event"
    },
    {
      "inputs": [
        {
          "internalType": "address",
          "name": "to",
          "type": "address"
        },
        {
          "internalType": "uint256",
          "name": "tokenId",
          "type": "uint256"
        }
      ],
      "name": "approve",
      "outputs": [],
      "stateMutability": "nonpayable",
      "type": "function"
    },
    {
      "inputs": [
        {
          "internalType": "address",
          "name": "owner",
          "type": "address"
        }
      ],
      "name": "balanceOf",
      "outputs": [
        {
          "internalType": "uint256",
          "name": "",
          "type": "uint256"
        }
      ],
      "stateMutability": "view",
      "type": "function"
    },
    {
      "inputs": [
        {
          "internalType": "uint256",
          "name": "tokenId",
          "type": "uint256"
        }
      ],
      "name": "getApproved",
      "outputs": [
        {
          "internalType": "address",
          "name": "",
          "type": "address"
        }
      ],
      "stateMutability": "view",
      "type": "function"
    },
    {
      "inputs": [],
      "name": "getArrayChance",
      "outputs": [
        {
          "internalType": "uint256[3]",
          "name": "",
          "type": "uint256[3]"
        }
      ],
      "stateMutability": "pure",
      "type": "function"
    },
    {
      "inputs": [
        {
          "internalType": "uint256",
          "name": "modedRng",
          "type": "uint256"
        }
      ],
      "name": "getBreadFromModedng",
      "outputs": [
        {
          "internalType": "enum RandomIpfsNft.Bread",
          "name": "",
          "type": "uint8"
        }
      ],
      "stateMutability": "pure",
      "type": "function"
    },
    {
      "inputs": [],
      "name": "getMintFee",
      "outputs": [
        {
          "internalType": "uint256",
          "name": "",
          "type": "uint256"
        }
      ],
      "stateMutability": "view",
      "type": "function"
    },
    {
      "inputs": [
        {
          "internalType": "uint256",
          "name": "index",
          "type": "uint256"
        }
      ],
      "name": "getTokenURI",
      "outputs": [
        {
          "internalType": "string",
          "name": "",
          "type": "string"
        }
      ],
      "stateMutability": "view",
      "type": "function"
    },
    {
      "inputs": [
        {
          "internalType": "address",
          "name": "owner",
          "type": "address"
        },
        {
          "internalType": "address",
          "name": "operator",
          "type": "address"
        }
      ],
      "name": "isApprovedForAll",
      "outputs": [
        {
          "internalType": "bool",
          "name": "",
          "type": "bool"
        }
      ],
      "stateMutability": "view",
      "type": "function"
    },
    {
      "inputs": [],
      "name": "name",
      "outputs": [
        {
          "internalType": "string",
          "name": "",
          "type": "string"
        }
      ],
      "stateMutability": "view",
      "type": "function"
    },
    {
      "inputs": [],
      "name": "owner",
      "outputs": [
        {
          "internalType": "address",
          "name": "",
          "type": "address"
        }
      ],
      "stateMutability": "view",
      "type": "function"
    },
    {
      "inputs": [
        {
          "internalType": "uint256",
          "name": "tokenId",
          "type": "uint256"
        }
      ],
      "name": "ownerOf",
      "outputs": [
        {
          "internalType": "address",
          "name": "",
          "type": "address"
        }
      ],
      "stateMutability": "view",
      "type": "function"
    },
    {
      "inputs": [
        {
          "internalType": "uint256",
          "name": "requestId",
          "type": "uint256"
        },
        {
          "internalType": "uint256[]",
          "name": "randomWords",
          "type": "uint256[]"
        }
      ],
      "name": "rawFulfillRandomWords",
      "outputs": [],
      "stateMutability": "nonpayable",
      "type": "function"
    },
    {
      "inputs": [],
      "name": "renounceOwnership",
      "outputs": [],
      "stateMutability": "nonpayable",
      "type": "function"
    },
    {
      "inputs": [],
      "name": "requestNft",
      "outputs": [
        {
          "internalType": "uint256",
          "name": "requestId",
          "type": "uint256"
        }
      ],
      "stateMutability": "payable",
      "type": "function"
    },
    {
      "inputs": [
        {
          "internalType": "address",
          "name": "from",
          "type": "address"
        },
        {
          "internalType": "address",
          "name": "to",
          "type": "address"
        },
        {
          "internalType": "uint256",
          "name": "tokenId",
          "type": "uint256"
        }
      ],
      "name": "safeTransferFrom",
      "outputs": [],
      "stateMutability": "nonpayable",
      "type": "function"
    },
    {
      "inputs": [
        {
          "internalType": "address",
          "name": "from",
          "type": "address"
        },
        {
          "internalType": "address",
          "name": "to",
          "type": "address"
        },
        {
          "internalType": "uint256",
          "name": "tokenId",
          "type": "uint256"
        },
        {
          "internalType": "bytes",
          "name": "data",
          "type": "bytes"
        }
      ],
      "name": "safeTransferFrom",
      "outputs": [],
      "stateMutability": "nonpayable",
      "type": "function"
    },
    {
      "inputs": [
        {
          "internalType": "address",
          "name": "operator",
          "type": "address"
        },
        {
          "internalType": "bool",
          "name": "approved",
          "type": "bool"
        }
      ],
      "name": "setApprovalForAll",
      "outputs": [],
      "stateMutability": "nonpayable",
      "type": "function"
    },
    {
      "inputs": [
        {
          "internalType": "bytes4",
          "name": "interfaceId",
          "type": "bytes4"
        }
      ],
      "name": "supportsInterface",
      "outputs": [
        {
          "internalType": "bool",
          "name": "",
          "type": "bool"
        }
      ],
      "stateMutability": "view",
      "type": "function"
    },
    {
      "inputs": [],
      "name": "symbol",
      "outputs": [
        {
          "internalType": "string",
          "name": "",
          "type": "string"
        }
      ],
      "stateMutability": "view",
      "type": "function"
    },
    {
      "inputs": [
        {
          "internalType": "uint256",
          "name": "tokenId",
          "type": "uint256"
        }
      ],
      "name": "tokenURI",
      "outputs": [
        {
          "internalType": "string",
          "name": "",
          "type": "string"
        }
      ],
      "stateMutability": "view",
      "type": "function"
    },
    {
      "inputs": [
        {
          "internalType": "address",
          "name": "from",
          "type": "address"
        },
        {
          "internalType": "address",
          "name": "to",
          "type": "address"
        },
        {
          "internalType": "uint256",
          "name": "tokenId",
          "type": "uint256"
        }
      ],
      "name": "transferFrom",
      "outputs": [],
      "stateMutability": "nonpayable",
      "type": "function"
    },
    {
      "inputs": [
        {
          "internalType": "address",
          "name": "newOwner",
          "type": "address"
        }
      ],
      "name": "transferOwnership",
      "outputs": [],
      "stateMutability": "nonpayable",
      "type": "function"
    },
    {
      "inputs": [],
      "name": "withdraw",
      "outputs": [],
      "stateMutability": "nonpayable",
      "type": "function"
    }
  ],
  "transactionHash": "0xbce8153640b0fbe25aa24e15a055b56dd9b8577bf7ef5f2f458119923d9e65b2",
  "args": [
    "0x2Ca8E0C643bDe4C2E08ab1fA0da3401AdAD7734D",
    "0x79d3d8832d904592c0bf9818b621522c988bb8b0c05cdc3b15aea1b6e8db0c15",
    "7455",
    "500000",
    [
      "ipfs://QmSdrSFXTuWhktvsJnHu65wpf4UovHjU45ZBoS3ibB7gDi",
      "ipfs://QmTY8sv1zviRtYp3imh4RQ9DGBhbJtjQcoiHF7p8HF2sXP",
      "ipfs://QmWXpiYiwzrMosWyMsNv3HXDWTxe6veBj7Y5Y3n5Gxy7UE"
    ],
    "10000000000000000"
  ],
  "numDeployments": 1,
  "solcInputHash": "78d70c2c2913154b71cda5b4c4bfbfea",
  "bytecode": "0x6101406040523480156200001257600080fd5b50604051620044283803806200442883398181016040528101906200003891906200080b565b856040518060400160405280600981526020017f44616e676f6c64656e00000000000000000000000000000000000000000000008152506040518060400160405280600381526020017f44474e00000000000000000000000000000000000000000000000000000000008152508160009080519060200190620000bd9291906200029e565b508060019080519060200190620000d69291906200029e565b5050508073ffffffffffffffffffffffffffffffffffffffff1660808173ffffffffffffffffffffffffffffffffffffffff1660601b81525050506200013162000125620001d060201b60201c565b620001d860201b60201c565b8573ffffffffffffffffffffffffffffffffffffffff166101008173ffffffffffffffffffffffffffffffffffffffff1660601b815250508460a081815250508367ffffffffffffffff1660c08167ffffffffffffffff1660c01b815250508263ffffffff1660e08163ffffffff1660e01b8152505081600a906003620001ba9291906200032f565b508061012081815250505050505050506200092b565b600033905090565b6000600760009054906101000a900473ffffffffffffffffffffffffffffffffffffffff16905081600760006101000a81548173ffffffffffffffffffffffffffffffffffffffff021916908373ffffffffffffffffffffffffffffffffffffffff1602179055508173ffffffffffffffffffffffffffffffffffffffff168173ffffffffffffffffffffffffffffffffffffffff167f8be0079c531659141344cd1fd0a4f28419497f9722a3daafe3b4186f6b6457e060405160405180910390a35050565b828054620002ac90620008f5565b90600052602060002090601f016020900481019282620002d057600085556200031c565b82601f10620002eb57805160ff19168380011785556200031c565b828001600101855582156200031c579182015b828111156200031b578251825591602001919060010190620002fe565b5b5090506200032b919062000396565b5090565b82805482825590600052602060002090810192821562000383579160200282015b8281111562000382578251829080519060200190620003719291906200029e565b509160200191906001019062000350565b5b509050620003929190620003b5565b5090565b5b80821115620003b157600081600090555060010162000397565b5090565b5b80821115620003d95760008181620003cf9190620003dd565b50600101620003b6565b5090565b508054620003eb90620008f5565b6000825580601f10620003ff575062000420565b601f0160209004906000526020600020908101906200041f919062000396565b5b50565b6000604051905090565b600080fd5b600080fd5b600073ffffffffffffffffffffffffffffffffffffffff82169050919050565b6000620004648262000437565b9050919050565b620004768162000457565b81146200048257600080fd5b50565b60008151905062000496816200046b565b92915050565b6000819050919050565b620004b1816200049c565b8114620004bd57600080fd5b50565b600081519050620004d181620004a6565b92915050565b600067ffffffffffffffff82169050919050565b620004f681620004d7565b81146200050257600080fd5b50565b6000815190506200051681620004eb565b92915050565b600063ffffffff82169050919050565b62000537816200051c565b81146200054357600080fd5b50565b60008151905062000557816200052c565b92915050565b600080fd5b6000601f19601f8301169050919050565b7f4e487b7100000000000000000000000000000000000000000000000000000000600052604160045260246000fd5b620005ad8262000562565b810181811067ffffffffffffffff82111715620005cf57620005ce62000573565b5b80604052505050565b6000620005e462000423565b9050620005f28282620005a2565b919050565b600067ffffffffffffffff82111562000615576200061462000573565b5b602082029050919050565b600080fd5b600080fd5b600067ffffffffffffffff82111562000648576200064762000573565b5b620006538262000562565b9050602081019050919050565b60005b838110156200068057808201518184015260208101905062000663565b8381111562000690576000848401525b50505050565b6000620006ad620006a7846200062a565b620005d8565b905082815260208101848484011115620006cc57620006cb62000625565b5b620006d984828562000660565b509392505050565b600082601f830112620006f957620006f86200055d565b5b81516200070b84826020860162000696565b91505092915050565b60006200072b6200072584620005f7565b620005d8565b9050806020840283018581111562000748576200074762000620565b5b835b818110156200079657805167ffffffffffffffff8111156200077157620007706200055d565b5b808601620007808982620006e1565b855260208501945050506020810190506200074a565b5050509392505050565b600082601f830112620007b857620007b76200055d565b5b6003620007c784828562000714565b91505092915050565b6000819050919050565b620007e581620007d0565b8114620007f157600080fd5b50565b6000815190506200080581620007da565b92915050565b60008060008060008060c087890312156200082b576200082a6200042d565b5b60006200083b89828a0162000485565b96505060206200084e89828a01620004c0565b95505060406200086189828a0162000505565b94505060606200087489828a0162000546565b935050608087015167ffffffffffffffff81111562000898576200089762000432565b5b620008a689828a01620007a0565b92505060a0620008b989828a01620007f4565b9150509295509295509295565b7f4e487b7100000000000000000000000000000000000000000000000000000000600052602260045260246000fd5b600060028204905060018216806200090e57607f821691505b60208210811415620009255762000924620008c6565b5b50919050565b60805160601c60a05160c05160c01c60e05160e01c6101005160601c61012051613a936200099560003960008181610c3c0152610d3601526000610d9001526000610e1001526000610ded01526000610dcc01526000818161084301526108970152613a936000f3fe6080604052600436106101405760003560e01c8063715018a6116100b6578063b88d4fde1161006f578063b88d4fde1461043b578063c87b56dd14610464578063d20cb800146104a1578063db169c69146104de578063e985e9c514610509578063f2fde38b1461054657610140565b8063715018a61461035c5780637a5caab3146103735780638da5cb5b1461039e57806395d89b41146103c9578063a22cb465146103f4578063aa1524911461041d57610140565b806323b872dd1161010857806323b872dd1461023c5780633bb3a24d146102655780633ccfd60b146102a257806342842e0e146102b95780636352211e146102e257806370a082311461031f57610140565b806301ffc9a71461014557806306fdde0314610182578063081812fc146101ad578063095ea7b3146101ea5780631fe543e314610213575b600080fd5b34801561015157600080fd5b5061016c60048036038101906101679190612660565b61056f565b60405161017991906126a8565b60405180910390f35b34801561018e57600080fd5b50610197610651565b6040516101a4919061275c565b60405180910390f35b3480156101b957600080fd5b506101d460048036038101906101cf91906127b4565b6106e3565b6040516101e19190612822565b60405180910390f35b3480156101f657600080fd5b50610211600480360381019061020c9190612869565b610729565b005b34801561021f57600080fd5b5061023a600480360381019061023591906129f1565b610841565b005b34801561024857600080fd5b50610263600480360381019061025e9190612a4d565b610901565b005b34801561027157600080fd5b5061028c600480360381019061028791906127b4565b610961565b604051610299919061275c565b60405180910390f35b3480156102ae57600080fd5b506102b7610a11565b005b3480156102c557600080fd5b506102e060048036038101906102db9190612a4d565b610ac5565b005b3480156102ee57600080fd5b50610309600480360381019061030491906127b4565b610ae5565b6040516103169190612822565b60405180910390f35b34801561032b57600080fd5b5061034660048036038101906103419190612aa0565b610b6c565b6040516103539190612adc565b60405180910390f35b34801561036857600080fd5b50610371610c24565b005b34801561037f57600080fd5b50610388610c38565b6040516103959190612adc565b60405180910390f35b3480156103aa57600080fd5b506103b3610c60565b6040516103c09190612822565b60405180910390f35b3480156103d557600080fd5b506103de610c8a565b6040516103eb919061275c565b60405180910390f35b34801561040057600080fd5b5061041b60048036038101906104169190612b23565b610d1c565b005b610425610d32565b6040516104329190612adc565b60405180910390f35b34801561044757600080fd5b50610462600480360381019061045d9190612c18565b610f32565b005b34801561047057600080fd5b5061048b600480360381019061048691906127b4565b610f94565b604051610498919061275c565b60405180910390f35b3480156104ad57600080fd5b506104c860048036038101906104c391906127b4565b6110a7565b6040516104d59190612d12565b60405180910390f35b3480156104ea57600080fd5b506104f3611189565b6040516105009190612dd8565b60405180910390f35b34801561051557600080fd5b50610530600480360381019061052b9190612df3565b6111b4565b60405161053d91906126a8565b60405180910390f35b34801561055257600080fd5b5061056d60048036038101906105689190612aa0565b611248565b005b60007f80ac58cd000000000000000000000000000000000000000000000000000000007bffffffffffffffffffffffffffffffffffffffffffffffffffffffff1916827bffffffffffffffffffffffffffffffffffffffffffffffffffffffff1916148061063a57507f5b5e139f000000000000000000000000000000000000000000000000000000007bffffffffffffffffffffffffffffffffffffffffffffffffffffffff1916827bffffffffffffffffffffffffffffffffffffffffffffffffffffffff1916145b8061064a5750610649826112cc565b5b9050919050565b60606000805461066090612e62565b80601f016020809104026020016040519081016040528092919081815260200182805461068c90612e62565b80156106d95780601f106106ae576101008083540402835291602001916106d9565b820191906000526020600020905b8154815290600101906020018083116106bc57829003601f168201915b5050505050905090565b60006106ee82611336565b6004600083815260200190815260200160002060009054906101000a900473ffffffffffffffffffffffffffffffffffffffff169050919050565b600061073482610ae5565b90508073ffffffffffffffffffffffffffffffffffffffff168373ffffffffffffffffffffffffffffffffffffffff1614156107a5576040517f08c379a000000000000000000000000000000000000000000000000000000000815260040161079c90612f06565b60405180910390fd5b8073ffffffffffffffffffffffffffffffffffffffff166107c4611381565b73ffffffffffffffffffffffffffffffffffffffff1614806107f357506107f2816107ed611381565b6111b4565b5b610832576040517f08c379a000000000000000000000000000000000000000000000000000000000815260040161082990612f98565b60405180910390fd5b61083c8383611389565b505050565b7f000000000000000000000000000000000000000000000000000000000000000073ffffffffffffffffffffffffffffffffffffffff163373ffffffffffffffffffffffffffffffffffffffff16146108f357337f00000000000000000000000000000000000000000000000000000000000000006040517f1cf993f40000000000000000000000000000000000000000000000000000000081526004016108ea929190612fb8565b60405180910390fd5b6108fd8282611442565b5050565b61091261090c611381565b826115f3565b610951576040517f08c379a000000000000000000000000000000000000000000000000000000000815260040161094890613053565b60405180910390fd5b61095c838383611688565b505050565b6060600a828154811061097757610976613073565b5b90600052602060002001805461098c90612e62565b80601f01602080910402602001604051908101604052809291908181526020018280546109b890612e62565b8015610a055780601f106109da57610100808354040283529160200191610a05565b820191906000526020600020905b8154815290600101906020018083116109e857829003601f168201915b50505050509050919050565b610a19611982565b600047905060003373ffffffffffffffffffffffffffffffffffffffff1682604051610a44906130d3565b60006040518083038185875af1925050503d8060008114610a81576040519150601f19603f3d011682016040523d82523d6000602084013e610a86565b606091505b5050905080610ac1576040517f5586f5d000000000000000000000000000000000000000000000000000000000815260040160405180910390fd5b5050565b610ae083838360405180602001604052806000815250610f32565b505050565b600080610af183611a00565b9050600073ffffffffffffffffffffffffffffffffffffffff168173ffffffffffffffffffffffffffffffffffffffff161415610b63576040517f08c379a0000000000000000000000000000000000000000000000000000000008152600401610b5a90613134565b60405180910390fd5b80915050919050565b60008073ffffffffffffffffffffffffffffffffffffffff168273ffffffffffffffffffffffffffffffffffffffff161415610bdd576040517f08c379a0000000000000000000000000000000000000000000000000000000008152600401610bd4906131c6565b60405180910390fd5b600360008373ffffffffffffffffffffffffffffffffffffffff1673ffffffffffffffffffffffffffffffffffffffff168152602001908152602001600020549050919050565b610c2c611982565b610c366000611a3d565b565b60007f0000000000000000000000000000000000000000000000000000000000000000905090565b6000600760009054906101000a900473ffffffffffffffffffffffffffffffffffffffff16905090565b606060018054610c9990612e62565b80601f0160208091040260200160405190810160405280929190818152602001828054610cc590612e62565b8015610d125780601f10610ce757610100808354040283529160200191610d12565b820191906000526020600020905b815481529060010190602001808311610cf557829003601f168201915b5050505050905090565b610d2e610d27611381565b8383611b03565b5050565b60007f0000000000000000000000000000000000000000000000000000000000000000341015610d8e576040517f604b440b00000000000000000000000000000000000000000000000000000000815260040160405180910390fd5b7f000000000000000000000000000000000000000000000000000000000000000073ffffffffffffffffffffffffffffffffffffffff16635d3b1d307f00000000000000000000000000000000000000000000000000000000000000007f000000000000000000000000000000000000000000000000000000000000000060037f000000000000000000000000000000000000000000000000000000000000000060016040518663ffffffff1660e01b8152600401610e51959493929190613299565b602060405180830381600087803b158015610e6b57600080fd5b505af1158015610e7f573d6000803e3d6000fd5b505050506040513d601f19601f82011682018060405250810190610ea39190613301565b9050336008600083815260200190815260200160002060006101000a81548173ffffffffffffffffffffffffffffffffffffffff021916908373ffffffffffffffffffffffffffffffffffffffff160217905550807ff873236e6cc0ecc5be1a9a35c95ee5b8d1ac4cc7bfef0cc5060391d6cc98e26b33604051610f279190612822565b60405180910390a290565b610f43610f3d611381565b836115f3565b610f82576040517f08c379a0000000000000000000000000000000000000000000000000000000008152600401610f7990613053565b60405180910390fd5b610f8e84848484611c70565b50505050565b6060610f9f82611336565b6000600660008481526020019081526020016000208054610fbf90612e62565b80601f0160208091040260200160405190810160405280929190818152602001828054610feb90612e62565b80156110385780601f1061100d57610100808354040283529160200191611038565b820191906000526020600020905b81548152906001019060200180831161101b57829003601f168201915b505050505090506000611049611ccc565b905060008151141561105f5781925050506110a2565b60008251111561109457808260405160200161107c92919061336a565b604051602081830303815290604052925050506110a2565b61109d84611ce3565b925050505b919050565b6000806000905060006110b8611189565b905060005b6003811015611151578285101580156110f757508181600381106110e4576110e3613073565b5b6020020151836110f491906133bd565b85105b156111195780600281111561110f5761110e612c9b565b5b9350505050611184565b81816003811061112c5761112b613073565b5b60200201518361113c91906133bd565b9250808061114990613413565b9150506110bd565b506040517f561bfc4d00000000000000000000000000000000000000000000000000000000815260040160405180910390fd5b919050565b61119161252f565b6040518060600160405280600a8152602001601e81526020016064815250905090565b6000600560008473ffffffffffffffffffffffffffffffffffffffff1673ffffffffffffffffffffffffffffffffffffffff16815260200190815260200160002060008373ffffffffffffffffffffffffffffffffffffffff1673ffffffffffffffffffffffffffffffffffffffff16815260200190815260200160002060009054906101000a900460ff16905092915050565b611250611982565b600073ffffffffffffffffffffffffffffffffffffffff168173ffffffffffffffffffffffffffffffffffffffff1614156112c0576040517f08c379a00000000000000000000000000000000000000000000000000000000081526004016112b7906134ce565b60405180910390fd5b6112c981611a3d565b50565b60007f01ffc9a7000000000000000000000000000000000000000000000000000000007bffffffffffffffffffffffffffffffffffffffffffffffffffffffff1916827bffffffffffffffffffffffffffffffffffffffffffffffffffffffff1916149050919050565b61133f81611d4b565b61137e576040517f08c379a000000000000000000000000000000000000000000000000000000000815260040161137590613134565b60405180910390fd5b50565b600033905090565b816004600083815260200190815260200160002060006101000a81548173ffffffffffffffffffffffffffffffffffffffff021916908373ffffffffffffffffffffffffffffffffffffffff160217905550808273ffffffffffffffffffffffffffffffffffffffff166113fc83610ae5565b73ffffffffffffffffffffffffffffffffffffffff167f8c5be1e5ebec7d5bd14f71427d1e84f3dd0314c0f7b2291e5b200ac8c7c3b92560405160405180910390a45050565b60006008600084815260200190815260200160002060009054906101000a900473ffffffffffffffffffffffffffffffffffffffff16905060006009549050600060648460008151811061149957611498613073565b5b60200260200101516114ab919061351d565b905060006114b8826110a7565b9050600954600960008282546114ce91906133bd565b925050819055506114df8484611d8c565b6115a183600a8360028111156114f8576114f7612c9b565b5b8154811061150957611508613073565b5b90600052602060002001805461151e90612e62565b80601f016020809104026020016040519081016040528092919081815260200182805461154a90612e62565b80156115975780601f1061156c57610100808354040283529160200191611597565b820191906000526020600020905b81548152906001019060200180831161157a57829003601f168201915b5050505050611faa565b8060028111156115b4576115b3612c9b565b5b7fab79897476febbd649710b1bd1dc3e93a316d3dee65f65b022ab89a4b7e206b5856040516115e39190612822565b60405180910390a2505050505050565b6000806115ff83610ae5565b90508073ffffffffffffffffffffffffffffffffffffffff168473ffffffffffffffffffffffffffffffffffffffff161480611641575061164081856111b4565b5b8061167f57508373ffffffffffffffffffffffffffffffffffffffff16611667846106e3565b73ffffffffffffffffffffffffffffffffffffffff16145b91505092915050565b8273ffffffffffffffffffffffffffffffffffffffff166116a882610ae5565b73ffffffffffffffffffffffffffffffffffffffff16146116fe576040517f08c379a00000000000000000000000000000000000000000000000000000000081526004016116f5906135c0565b60405180910390fd5b600073ffffffffffffffffffffffffffffffffffffffff168273ffffffffffffffffffffffffffffffffffffffff16141561176e576040517f08c379a000000000000000000000000000000000000000000000000000000000815260040161176590613652565b60405180910390fd5b61177b838383600161201e565b8273ffffffffffffffffffffffffffffffffffffffff1661179b82610ae5565b73ffffffffffffffffffffffffffffffffffffffff16146117f1576040517f08c379a00000000000000000000000000000000000000000000000000000000081526004016117e8906135c0565b60405180910390fd5b6004600082815260200190815260200160002060006101000a81549073ffffffffffffffffffffffffffffffffffffffff02191690556001600360008573ffffffffffffffffffffffffffffffffffffffff1673ffffffffffffffffffffffffffffffffffffffff168152602001908152602001600020600082825403925050819055506001600360008473ffffffffffffffffffffffffffffffffffffffff1673ffffffffffffffffffffffffffffffffffffffff16815260200190815260200160002060008282540192505081905550816002600083815260200190815260200160002060006101000a81548173ffffffffffffffffffffffffffffffffffffffff021916908373ffffffffffffffffffffffffffffffffffffffff160217905550808273ffffffffffffffffffffffffffffffffffffffff168473ffffffffffffffffffffffffffffffffffffffff167fddf252ad1be2c89b69c2b068fc378daa952ba7f163c4a11628f55a4df523b3ef60405160405180910390a461197d8383836001612144565b505050565b61198a611381565b73ffffffffffffffffffffffffffffffffffffffff166119a8610c60565b73ffffffffffffffffffffffffffffffffffffffff16146119fe576040517f08c379a00000000000000000000000000000000000000000000000000000000081526004016119f5906136be565b60405180910390fd5b565b60006002600083815260200190815260200160002060009054906101000a900473ffffffffffffffffffffffffffffffffffffffff169050919050565b6000600760009054906101000a900473ffffffffffffffffffffffffffffffffffffffff16905081600760006101000a81548173ffffffffffffffffffffffffffffffffffffffff021916908373ffffffffffffffffffffffffffffffffffffffff1602179055508173ffffffffffffffffffffffffffffffffffffffff168173ffffffffffffffffffffffffffffffffffffffff167f8be0079c531659141344cd1fd0a4f28419497f9722a3daafe3b4186f6b6457e060405160405180910390a35050565b8173ffffffffffffffffffffffffffffffffffffffff168373ffffffffffffffffffffffffffffffffffffffff161415611b72576040517f08c379a0000000000000000000000000000000000000000000000000000000008152600401611b699061372a565b60405180910390fd5b80600560008573ffffffffffffffffffffffffffffffffffffffff1673ffffffffffffffffffffffffffffffffffffffff16815260200190815260200160002060008473ffffffffffffffffffffffffffffffffffffffff1673ffffffffffffffffffffffffffffffffffffffff16815260200190815260200160002060006101000a81548160ff0219169083151502179055508173ffffffffffffffffffffffffffffffffffffffff168373ffffffffffffffffffffffffffffffffffffffff167f17307eab39ab6107e8899845ad3d59bd9653f200f220920489ca2b5937696c3183604051611c6391906126a8565b60405180910390a3505050565b611c7b848484611688565b611c878484848461214a565b611cc6576040517f08c379a0000000000000000000000000000000000000000000000000000000008152600401611cbd906137bc565b60405180910390fd5b50505050565b606060405180602001604052806000815250905090565b6060611cee82611336565b6000611cf8611ccc565b90506000815111611d185760405180602001604052806000815250611d43565b80611d22846122e1565b604051602001611d3392919061336a565b6040516020818303038152906040525b915050919050565b60008073ffffffffffffffffffffffffffffffffffffffff16611d6d83611a00565b73ffffffffffffffffffffffffffffffffffffffff1614159050919050565b600073ffffffffffffffffffffffffffffffffffffffff168273ffffffffffffffffffffffffffffffffffffffff161415611dfc576040517f08c379a0000000000000000000000000000000000000000000000000000000008152600401611df390613828565b60405180910390fd5b611e0581611d4b565b15611e45576040517f08c379a0000000000000000000000000000000000000000000000000000000008152600401611e3c90613894565b60405180910390fd5b611e5360008383600161201e565b611e5c81611d4b565b15611e9c576040517f08c379a0000000000000000000000000000000000000000000000000000000008152600401611e9390613894565b60405180910390fd5b6001600360008473ffffffffffffffffffffffffffffffffffffffff1673ffffffffffffffffffffffffffffffffffffffff16815260200190815260200160002060008282540192505081905550816002600083815260200190815260200160002060006101000a81548173ffffffffffffffffffffffffffffffffffffffff021916908373ffffffffffffffffffffffffffffffffffffffff160217905550808273ffffffffffffffffffffffffffffffffffffffff16600073ffffffffffffffffffffffffffffffffffffffff167fddf252ad1be2c89b69c2b068fc378daa952ba7f163c4a11628f55a4df523b3ef60405160405180910390a4611fa6600083836001612144565b5050565b611fb382611d4b565b611ff2576040517f08c379a0000000000000000000000000000000000000000000000000000000008152600401611fe990613926565b60405180910390fd5b80600660008481526020019081526020016000209080519060200190612019929190612551565b505050565b600181111561213e57600073ffffffffffffffffffffffffffffffffffffffff168473ffffffffffffffffffffffffffffffffffffffff16146120b25780600360008673ffffffffffffffffffffffffffffffffffffffff1673ffffffffffffffffffffffffffffffffffffffff16815260200190815260200160002060008282546120aa9190613946565b925050819055505b600073ffffffffffffffffffffffffffffffffffffffff168373ffffffffffffffffffffffffffffffffffffffff161461213d5780600360008573ffffffffffffffffffffffffffffffffffffffff1673ffffffffffffffffffffffffffffffffffffffff168152602001908152602001600020600082825461213591906133bd565b925050819055505b5b50505050565b50505050565b600061216b8473ffffffffffffffffffffffffffffffffffffffff166123b9565b156122d4578373ffffffffffffffffffffffffffffffffffffffff1663150b7a02612194611381565b8786866040518563ffffffff1660e01b81526004016121b694939291906139cf565b602060405180830381600087803b1580156121d057600080fd5b505af192505050801561220157506040513d601f19601f820116820180604052508101906121fe9190613a30565b60015b612284573d8060008114612231576040519150601f19603f3d011682016040523d82523d6000602084013e612236565b606091505b5060008151141561227c576040517f08c379a0000000000000000000000000000000000000000000000000000000008152600401612273906137bc565b60405180910390fd5b805181602001fd5b63150b7a0260e01b7bffffffffffffffffffffffffffffffffffffffffffffffffffffffff1916817bffffffffffffffffffffffffffffffffffffffffffffffffffffffff1916149150506122d9565b600190505b949350505050565b6060600060016122f0846123dc565b01905060008167ffffffffffffffff81111561230f5761230e6128ae565b5b6040519080825280601f01601f1916602001820160405280156123415781602001600182028036833780820191505090505b509050600082602001820190505b6001156123ae578080600190039150507f3031323334353637383961626364656600000000000000000000000000000000600a86061a8153600a8581612398576123976134ee565b5b04945060008514156123a9576123ae565b61234f565b819350505050919050565b6000808273ffffffffffffffffffffffffffffffffffffffff163b119050919050565b600080600090507a184f03e93ff9f4daa797ed6e38ed64bf6a1f010000000000000000831061243a577a184f03e93ff9f4daa797ed6e38ed64bf6a1f01000000000000000083816124305761242f6134ee565b5b0492506040810190505b6d04ee2d6d415b85acef81000000008310612477576d04ee2d6d415b85acef8100000000838161246d5761246c6134ee565b5b0492506020810190505b662386f26fc1000083106124a657662386f26fc10000838161249c5761249b6134ee565b5b0492506010810190505b6305f5e10083106124cf576305f5e10083816124c5576124c46134ee565b5b0492506008810190505b61271083106124f45761271083816124ea576124e96134ee565b5b0492506004810190505b60648310612517576064838161250d5761250c6134ee565b5b0492506002810190505b600a8310612526576001810190505b80915050919050565b6040518060600160405280600390602082028036833780820191505090505090565b82805461255d90612e62565b90600052602060002090601f01602090048101928261257f57600085556125c6565b82601f1061259857805160ff19168380011785556125c6565b828001600101855582156125c6579182015b828111156125c55782518255916020019190600101906125aa565b5b5090506125d391906125d7565b5090565b5b808211156125f05760008160009055506001016125d8565b5090565b6000604051905090565b600080fd5b600080fd5b60007fffffffff0000000000000000000000000000000000000000000000000000000082169050919050565b61263d81612608565b811461264857600080fd5b50565b60008135905061265a81612634565b92915050565b600060208284031215612676576126756125fe565b5b60006126848482850161264b565b91505092915050565b60008115159050919050565b6126a28161268d565b82525050565b60006020820190506126bd6000830184612699565b92915050565b600081519050919050565b600082825260208201905092915050565b60005b838110156126fd5780820151818401526020810190506126e2565b8381111561270c576000848401525b50505050565b6000601f19601f8301169050919050565b600061272e826126c3565b61273881856126ce565b93506127488185602086016126df565b61275181612712565b840191505092915050565b600060208201905081810360008301526127768184612723565b905092915050565b6000819050919050565b6127918161277e565b811461279c57600080fd5b50565b6000813590506127ae81612788565b92915050565b6000602082840312156127ca576127c96125fe565b5b60006127d88482850161279f565b91505092915050565b600073ffffffffffffffffffffffffffffffffffffffff82169050919050565b600061280c826127e1565b9050919050565b61281c81612801565b82525050565b60006020820190506128376000830184612813565b92915050565b61284681612801565b811461285157600080fd5b50565b6000813590506128638161283d565b92915050565b600080604083850312156128805761287f6125fe565b5b600061288e85828601612854565b925050602061289f8582860161279f565b9150509250929050565b600080fd5b7f4e487b7100000000000000000000000000000000000000000000000000000000600052604160045260246000fd5b6128e682612712565b810181811067ffffffffffffffff82111715612905576129046128ae565b5b80604052505050565b60006129186125f4565b905061292482826128dd565b919050565b600067ffffffffffffffff821115612944576129436128ae565b5b602082029050602081019050919050565b600080fd5b600061296d61296884612929565b61290e565b905080838252602082019050602084028301858111156129905761298f612955565b5b835b818110156129b957806129a5888261279f565b845260208401935050602081019050612992565b5050509392505050565b600082601f8301126129d8576129d76128a9565b5b81356129e884826020860161295a565b91505092915050565b60008060408385031215612a0857612a076125fe565b5b6000612a168582860161279f565b925050602083013567ffffffffffffffff811115612a3757612a36612603565b5b612a43858286016129c3565b9150509250929050565b600080600060608486031215612a6657612a656125fe565b5b6000612a7486828701612854565b9350506020612a8586828701612854565b9250506040612a968682870161279f565b9150509250925092565b600060208284031215612ab657612ab56125fe565b5b6000612ac484828501612854565b91505092915050565b612ad68161277e565b82525050565b6000602082019050612af16000830184612acd565b92915050565b612b008161268d565b8114612b0b57600080fd5b50565b600081359050612b1d81612af7565b92915050565b60008060408385031215612b3a57612b396125fe565b5b6000612b4885828601612854565b9250506020612b5985828601612b0e565b9150509250929050565b600080fd5b600067ffffffffffffffff821115612b8357612b826128ae565b5b612b8c82612712565b9050602081019050919050565b82818337600083830152505050565b6000612bbb612bb684612b68565b61290e565b905082815260208101848484011115612bd757612bd6612b63565b5b612be2848285612b99565b509392505050565b600082601f830112612bff57612bfe6128a9565b5b8135612c0f848260208601612ba8565b91505092915050565b60008060008060808587031215612c3257612c316125fe565b5b6000612c4087828801612854565b9450506020612c5187828801612854565b9350506040612c628782880161279f565b925050606085013567ffffffffffffffff811115612c8357612c82612603565b5b612c8f87828801612bea565b91505092959194509250565b7f4e487b7100000000000000000000000000000000000000000000000000000000600052602160045260246000fd5b60038110612cdb57612cda612c9b565b5b50565b6000819050612cec82612cca565b919050565b6000612cfc82612cde565b9050919050565b612d0c81612cf1565b82525050565b6000602082019050612d276000830184612d03565b92915050565b600060039050919050565b600081905092915050565b6000819050919050565b612d568161277e565b82525050565b6000612d688383612d4d565b60208301905092915050565b6000602082019050919050565b612d8a81612d2d565b612d948184612d38565b9250612d9f82612d43565b8060005b83811015612dd0578151612db78782612d5c565b9650612dc283612d74565b925050600181019050612da3565b505050505050565b6000606082019050612ded6000830184612d81565b92915050565b60008060408385031215612e0a57612e096125fe565b5b6000612e1885828601612854565b9250506020612e2985828601612854565b9150509250929050565b7f4e487b7100000000000000000000000000000000000000000000000000000000600052602260045260246000fd5b60006002820490506001821680612e7a57607f821691505b60208210811415612e8e57612e8d612e33565b5b50919050565b7f4552433732313a20617070726f76616c20746f2063757272656e74206f776e6560008201527f7200000000000000000000000000000000000000000000000000000000000000602082015250565b6000612ef06021836126ce565b9150612efb82612e94565b604082019050919050565b60006020820190508181036000830152612f1f81612ee3565b9050919050565b7f4552433732313a20617070726f76652063616c6c6572206973206e6f7420746f60008201527f6b656e206f776e6572206f7220617070726f76656420666f7220616c6c000000602082015250565b6000612f82603d836126ce565b9150612f8d82612f26565b604082019050919050565b60006020820190508181036000830152612fb181612f75565b9050919050565b6000604082019050612fcd6000830185612813565b612fda6020830184612813565b9392505050565b7f4552433732313a2063616c6c6572206973206e6f7420746f6b656e206f776e6560008201527f72206f7220617070726f76656400000000000000000000000000000000000000602082015250565b600061303d602d836126ce565b915061304882612fe1565b604082019050919050565b6000602082019050818103600083015261306c81613030565b9050919050565b7f4e487b7100000000000000000000000000000000000000000000000000000000600052603260045260246000fd5b600081905092915050565b50565b60006130bd6000836130a2565b91506130c8826130ad565b600082019050919050565b60006130de826130b0565b9150819050919050565b7f4552433732313a20696e76616c696420746f6b656e2049440000000000000000600082015250565b600061311e6018836126ce565b9150613129826130e8565b602082019050919050565b6000602082019050818103600083015261314d81613111565b9050919050565b7f4552433732313a2061646472657373207a65726f206973206e6f74206120766160008201527f6c6964206f776e65720000000000000000000000000000000000000000000000602082015250565b60006131b06029836126ce565b91506131bb82613154565b604082019050919050565b600060208201905081810360008301526131df816131a3565b9050919050565b6000819050919050565b6131f9816131e6565b82525050565b600067ffffffffffffffff82169050919050565b61321c816131ff565b82525050565b600061ffff82169050919050565b61323981613222565b82525050565b600063ffffffff82169050919050565b6132588161323f565b82525050565b6000819050919050565b600061328361327e61327984613222565b61325e565b61323f565b9050919050565b61329381613268565b82525050565b600060a0820190506132ae60008301886131f0565b6132bb6020830187613213565b6132c86040830186613230565b6132d5606083018561324f565b6132e2608083018461328a565b9695505050505050565b6000815190506132fb81612788565b92915050565b600060208284031215613317576133166125fe565b5b6000613325848285016132ec565b91505092915050565b600081905092915050565b6000613344826126c3565b61334e818561332e565b935061335e8185602086016126df565b80840191505092915050565b60006133768285613339565b91506133828284613339565b91508190509392505050565b7f4e487b7100000000000000000000000000000000000000000000000000000000600052601160045260246000fd5b60006133c88261277e565b91506133d38361277e565b9250827fffffffffffffffffffffffffffffffffffffffffffffffffffffffffffffffff038211156134085761340761338e565b5b828201905092915050565b600061341e8261277e565b91507fffffffffffffffffffffffffffffffffffffffffffffffffffffffffffffffff8214156134515761345061338e565b5b600182019050919050565b7f4f776e61626c653a206e6577206f776e657220697320746865207a65726f206160008201527f6464726573730000000000000000000000000000000000000000000000000000602082015250565b60006134b86026836126ce565b91506134c38261345c565b604082019050919050565b600060208201905081810360008301526134e7816134ab565b9050919050565b7f4e487b7100000000000000000000000000000000000000000000000000000000600052601260045260246000fd5b60006135288261277e565b91506135338361277e565b925082613543576135426134ee565b5b828206905092915050565b7f4552433732313a207472616e736665722066726f6d20696e636f72726563742060008201527f6f776e6572000000000000000000000000000000000000000000000000000000602082015250565b60006135aa6025836126ce565b91506135b58261354e565b604082019050919050565b600060208201905081810360008301526135d98161359d565b9050919050565b7f4552433732313a207472616e7366657220746f20746865207a65726f2061646460008201527f7265737300000000000000000000000000000000000000000000000000000000602082015250565b600061363c6024836126ce565b9150613647826135e0565b604082019050919050565b6000602082019050818103600083015261366b8161362f565b9050919050565b7f4f776e61626c653a2063616c6c6572206973206e6f7420746865206f776e6572600082015250565b60006136a86020836126ce565b91506136b382613672565b602082019050919050565b600060208201905081810360008301526136d78161369b565b9050919050565b7f4552433732313a20617070726f766520746f2063616c6c657200000000000000600082015250565b60006137146019836126ce565b915061371f826136de565b602082019050919050565b6000602082019050818103600083015261374381613707565b9050919050565b7f4552433732313a207472616e7366657220746f206e6f6e20455243373231526560008201527f63656976657220696d706c656d656e7465720000000000000000000000000000602082015250565b60006137a66032836126ce565b91506137b18261374a565b604082019050919050565b600060208201905081810360008301526137d581613799565b9050919050565b7f4552433732313a206d696e7420746f20746865207a65726f2061646472657373600082015250565b60006138126020836126ce565b915061381d826137dc565b602082019050919050565b6000602082019050818103600083015261384181613805565b9050919050565b7f4552433732313a20746f6b656e20616c7265616479206d696e74656400000000600082015250565b600061387e601c836126ce565b915061388982613848565b602082019050919050565b600060208201905081810360008301526138ad81613871565b9050919050565b7f45524337323155524953746f726167653a2055524920736574206f66206e6f6e60008201527f6578697374656e7420746f6b656e000000000000000000000000000000000000602082015250565b6000613910602e836126ce565b915061391b826138b4565b604082019050919050565b6000602082019050818103600083015261393f81613903565b9050919050565b60006139518261277e565b915061395c8361277e565b92508282101561396f5761396e61338e565b5b828203905092915050565b600081519050919050565b600082825260208201905092915050565b60006139a18261397a565b6139ab8185613985565b93506139bb8185602086016126df565b6139c481612712565b840191505092915050565b60006080820190506139e46000830187612813565b6139f16020830186612813565b6139fe6040830185612acd565b8181036060830152613a108184613996565b905095945050505050565b600081519050613a2a81612634565b92915050565b600060208284031215613a4657613a456125fe565b5b6000613a5484828501613a1b565b9150509291505056fea264697066735822122019dc3adbf499ce14a0a889de17b1e8bfbc92b85101bc952d611b25f8c99a841064736f6c63430008080033",
  "devdoc": {
    "kind": "dev",
    "methods": {
      "approve(address,uint256)": {
        "details": "See {IERC721-approve}."
      },
      "balanceOf(address)": {
        "details": "See {IERC721-balanceOf}."
      },
      "getApproved(uint256)": {
        "details": "See {IERC721-getApproved}."
      },
      "isApprovedForAll(address,address)": {
        "details": "See {IERC721-isApprovedForAll}."
      },
      "name()": {
        "details": "See {IERC721Metadata-name}."
      },
      "owner()": {
        "details": "Returns the address of the current owner."
      },
      "ownerOf(uint256)": {
        "details": "See {IERC721-ownerOf}."
      },
      "renounceOwnership()": {
        "details": "Leaves the contract without owner. It will not be possible to call `onlyOwner` functions anymore. Can only be called by the current owner. NOTE: Renouncing ownership will leave the contract without an owner, thereby removing any functionality that is only available to the owner."
      },
      "safeTransferFrom(address,address,uint256)": {
        "details": "See {IERC721-safeTransferFrom}."
      },
      "safeTransferFrom(address,address,uint256,bytes)": {
        "details": "See {IERC721-safeTransferFrom}."
      },
      "setApprovalForAll(address,bool)": {
        "details": "See {IERC721-setApprovalForAll}."
      },
      "supportsInterface(bytes4)": {
        "details": "See {IERC165-supportsInterface}."
      },
      "symbol()": {
        "details": "See {IERC721Metadata-symbol}."
      },
      "tokenURI(uint256)": {
        "details": "See {IERC721Metadata-tokenURI}."
      },
      "transferFrom(address,address,uint256)": {
        "details": "See {IERC721-transferFrom}."
      },
      "transferOwnership(address)": {
        "details": "Transfers ownership of the contract to a new account (`newOwner`). Can only be called by the current owner."
      }
    },
    "version": 1
  },
  "userdoc": {
    "kind": "user",
    "methods": {},
    "version": 1
  },
  "storageLayout": {
    "storage": [
      {
        "astId": 338,
        "contract": "contracts/RandomIpfsNft.sol:RandomIpfsNft",
        "label": "_name",
        "offset": 0,
        "slot": "0",
        "type": "t_string_storage"
      },
      {
        "astId": 340,
        "contract": "contracts/RandomIpfsNft.sol:RandomIpfsNft",
        "label": "_symbol",
        "offset": 0,
        "slot": "1",
        "type": "t_string_storage"
      },
      {
        "astId": 344,
        "contract": "contracts/RandomIpfsNft.sol:RandomIpfsNft",
        "label": "_owners",
        "offset": 0,
        "slot": "2",
        "type": "t_mapping(t_uint256,t_address)"
      },
      {
        "astId": 348,
        "contract": "contracts/RandomIpfsNft.sol:RandomIpfsNft",
        "label": "_balances",
        "offset": 0,
        "slot": "3",
        "type": "t_mapping(t_address,t_uint256)"
      },
      {
        "astId": 352,
        "contract": "contracts/RandomIpfsNft.sol:RandomIpfsNft",
        "label": "_tokenApprovals",
        "offset": 0,
        "slot": "4",
        "type": "t_mapping(t_uint256,t_address)"
      },
      {
        "astId": 358,
        "contract": "contracts/RandomIpfsNft.sol:RandomIpfsNft",
        "label": "_operatorApprovals",
        "offset": 0,
        "slot": "5",
        "type": "t_mapping(t_address,t_mapping(t_address,t_bool))"
      },
      {
        "astId": 1404,
        "contract": "contracts/RandomIpfsNft.sol:RandomIpfsNft",
        "label": "_tokenURIs",
        "offset": 0,
        "slot": "6",
        "type": "t_mapping(t_uint256,t_string_storage)"
      },
      {
        "astId": 207,
        "contract": "contracts/RandomIpfsNft.sol:RandomIpfsNft",
        "label": "_owner",
        "offset": 0,
        "slot": "7",
        "type": "t_address"
      },
      {
        "astId": 3372,
        "contract": "contracts/RandomIpfsNft.sol:RandomIpfsNft",
        "label": "s_requestAddress",
        "offset": 0,
        "slot": "8",
        "type": "t_mapping(t_uint256,t_address)"
      },
      {
        "astId": 3374,
        "contract": "contracts/RandomIpfsNft.sol:RandomIpfsNft",
        "label": "s_counter",
        "offset": 0,
        "slot": "9",
        "type": "t_uint256"
      },
      {
        "astId": 3379,
        "contract": "contracts/RandomIpfsNft.sol:RandomIpfsNft",
        "label": "s_NftTokenUris",
        "offset": 0,
        "slot": "10",
        "type": "t_array(t_string_storage)dyn_storage"
      }
    ],
    "types": {
      "t_address": {
        "encoding": "inplace",
        "label": "address",
        "numberOfBytes": "20"
      },
      "t_array(t_string_storage)dyn_storage": {
        "base": "t_string_storage",
        "encoding": "dynamic_array",
        "label": "string[]",
        "numberOfBytes": "32"
      },
      "t_bool": {
        "encoding": "inplace",
        "label": "bool",
        "numberOfBytes": "1"
      },
      "t_mapping(t_address,t_bool)": {
        "encoding": "mapping",
        "key": "t_address",
        "label": "mapping(address => bool)",
        "numberOfBytes": "32",
        "value": "t_bool"
      },
      "t_mapping(t_address,t_mapping(t_address,t_bool))": {
        "encoding": "mapping",
        "key": "t_address",
        "label": "mapping(address => mapping(address => bool))",
        "numberOfBytes": "32",
        "value": "t_mapping(t_address,t_bool)"
      },
      "t_mapping(t_address,t_uint256)": {
        "encoding": "mapping",
        "key": "t_address",
        "label": "mapping(address => uint256)",
        "numberOfBytes": "32",
        "value": "t_uint256"
      },
      "t_mapping(t_uint256,t_address)": {
        "encoding": "mapping",
        "key": "t_uint256",
        "label": "mapping(uint256 => address)",
        "numberOfBytes": "32",
        "value": "t_address"
      },
      "t_mapping(t_uint256,t_string_storage)": {
        "encoding": "mapping",
        "key": "t_uint256",
        "label": "mapping(uint256 => string)",
        "numberOfBytes": "32",
        "value": "t_string_storage"
      },
      "t_string_storage": {
        "encoding": "bytes",
        "label": "string",
        "numberOfBytes": "32"
      },
      "t_uint256": {
        "encoding": "inplace",
        "label": "uint256",
        "numberOfBytes": "32"
      }
    }
  }
}